{
  "contractName": "MedicalRecords",
  "abi": [
    {
      "inputs": [
        {
          "internalType": "address",
          "name": "",
          "type": "address"
        }
      ],
      "name": "medicalRecords",
      "outputs": [
        {
          "internalType": "string",
          "name": "patientName",
          "type": "string"
        },
        {
          "internalType": "string",
          "name": "patientDetailsJson",
          "type": "string"
        }
      ],
      "stateMutability": "view",
      "type": "function",
      "constant": true
    },
    {
      "inputs": [
        {
          "internalType": "string",
          "name": "patientName",
          "type": "string"
        },
        {
          "internalType": "string",
          "name": "patientDetailsJson",
          "type": "string"
        },
        {
          "internalType": "address",
          "name": "callerAddress",
          "type": "address"
        }
      ],
      "name": "addPatient",
      "outputs": [],
      "stateMutability": "nonpayable",
      "type": "function"
    },
    {
      "inputs": [
        {
          "internalType": "address",
          "name": "patientAddress",
          "type": "address"
        }
      ],
      "name": "getPatient",
      "outputs": [
        {
          "components": [
            {
              "internalType": "string",
              "name": "patientName",
              "type": "string"
            },
            {
              "internalType": "string",
              "name": "patientDetailsJson",
              "type": "string"
            }
          ],
          "internalType": "struct MedicalRecords.MedicalInformation",
          "name": "",
          "type": "tuple"
        }
      ],
      "stateMutability": "view",
      "type": "function",
      "constant": true
    }
  ],
  "bytecode": "0x608060405234801561001057600080fd5b5061093b806100206000396000f3fe608060405234801561001057600080fd5b50600436106100415760003560e01c8063106d617014610046578063b5368e2014610077578063deb04fba146100a7575b600080fd5b610060600480360381019061005b9190610537565b6100c3565b60405161006e9291906105fd565b60405180910390f35b610091600480360381019061008c9190610537565b6101f7565b60405161009e91906106c2565b60405180910390f35b6100c160048036038101906100bc9190610819565b610373565b005b60006020528060005260406000206000915090508060000180546100e6906108d3565b80601f0160208091040260200160405190810160405280929190818152602001828054610112906108d3565b801561015f5780601f106101345761010080835404028352916020019161015f565b820191906000526020600020905b81548152906001019060200180831161014257829003601f168201915b505050505090806001018054610174906108d3565b80601f01602080910402602001604051908101604052809291908181526020018280546101a0906108d3565b80156101ed5780601f106101c2576101008083540402835291602001916101ed565b820191906000526020600020905b8154815290600101906020018083116101d057829003601f168201915b5050505050905082565b6101ff610408565b6000808373ffffffffffffffffffffffffffffffffffffffff1673ffffffffffffffffffffffffffffffffffffffff168152602001908152602001600020604051806040016040529081600082018054610258906108d3565b80601f0160208091040260200160405190810160405280929190818152602001828054610284906108d3565b80156102d15780601f106102a6576101008083540402835291602001916102d1565b820191906000526020600020905b8154815290600101906020018083116102b457829003601f168201915b505050505081526020016001820180546102ea906108d3565b80601f0160208091040260200160405190810160405280929190818152602001828054610316906108d3565b80156103635780601f1061033857610100808354040283529160200191610363565b820191906000526020600020905b81548152906001019060200180831161034657829003601f168201915b5050505050815250509050919050565b6040518060400160405280848152602001838152506000808373ffffffffffffffffffffffffffffffffffffffff1673ffffffffffffffffffffffffffffffffffffffff16815260200190815260200160002060008201518160000190805190602001906103e2929190610422565b5060208201518160010190805190602001906103ff929190610422565b50905050505050565b604051806040016040528060608152602001606081525090565b82805461042e906108d3565b90600052602060002090601f0160209004810192826104505760008555610497565b82601f1061046957805160ff1916838001178555610497565b82800160010185558215610497579182015b8281111561049657825182559160200191906001019061047b565b5b5090506104a491906104a8565b5090565b5b808211156104c15760008160009055506001016104a9565b5090565b6000604051905090565b600080fd5b600080fd5b600073ffffffffffffffffffffffffffffffffffffffff82169050919050565b6000610504826104d9565b9050919050565b610514816104f9565b811461051f57600080fd5b50565b6000813590506105318161050b565b92915050565b60006020828403121561054d5761054c6104cf565b5b600061055b84828501610522565b91505092915050565b600081519050919050565b600082825260208201905092915050565b60005b8381101561059e578082015181840152602081019050610583565b838111156105ad576000848401525b50505050565b6000601f19601f8301169050919050565b60006105cf82610564565b6105d9818561056f565b93506105e9818560208601610580565b6105f2816105b3565b840191505092915050565b6000604082019050818103600083015261061781856105c4565b9050818103602083015261062b81846105c4565b90509392505050565b600082825260208201905092915050565b600061065082610564565b61065a8185610634565b935061066a818560208601610580565b610673816105b3565b840191505092915050565b6000604083016000830151848203600086015261069b8282610645565b915050602083015184820360208601526106b58282610645565b9150508091505092915050565b600060208201905081810360008301526106dc818461067e565b905092915050565b600080fd5b600080fd5b7f4e487b7100000000000000000000000000000000000000000000000000000000600052604160045260246000fd5b610726826105b3565b810181811067ffffffffffffffff82111715610745576107446106ee565b5b80604052505050565b60006107586104c5565b9050610764828261071d565b919050565b600067ffffffffffffffff821115610784576107836106ee565b5b61078d826105b3565b9050602081019050919050565b82818337600083830152505050565b60006107bc6107b784610769565b61074e565b9050828152602081018484840111156107d8576107d76106e9565b5b6107e384828561079a565b509392505050565b600082601f830112610800576107ff6106e4565b5b81356108108482602086016107a9565b91505092915050565b600080600060608486031215610832576108316104cf565b5b600084013567ffffffffffffffff8111156108505761084f6104d4565b5b61085c868287016107eb565b935050602084013567ffffffffffffffff81111561087d5761087c6104d4565b5b610889868287016107eb565b925050604061089a86828701610522565b9150509250925092565b7f4e487b7100000000000000000000000000000000000000000000000000000000600052602260045260246000fd5b600060028204905060018216806108eb57607f821691505b602082108114156108ff576108fe6108a4565b5b5091905056fea2646970667358221220085ca3ff880dff3dd794a264b77ab87724225ca2768d320062c494e8fe8a8e0b64736f6c634300080b0033",
  "immutableReferences": {},
  "source": "// SPDX-License-Identifier: GPL-3.0\npragma solidity >=0.4.0 <0.9.0;\n\ncontract MedicalRecords {\n    struct MedicalInformation {\n        string patientName;\n        string patientDetailsJson;\n    }\n\n    mapping(address => MedicalInformation) public medicalRecords;\n\n    function addPatient(\n        string memory patientName,\n        string memory patientDetailsJson,\n        address callerAddress\n    ) public {\n        medicalRecords[callerAddress] = MedicalInformation(\n            patientName,\n            patientDetailsJson\n        );\n    }\n\n    function getPatient(address patientAddress)\n        public\n        view\n        returns (MedicalInformation memory)\n    {\n        return medicalRecords[patientAddress];\n    }\n}\n",
  "sourcePath": "/Users/achinthaikiriwatte/Desktop/MSC/Semester IV/Research/Prototype Development/medical-network/contracts/CrossChain.sol",
  "compiler": {
    "name": "solc",
    "version": "0.8.11+commit.d7f03943.Emscripten.clang"
  },
  "schemaVersion": "3.4.5",
  "updatedAt": "2022-04-10T03:46:08.828Z",
  "networkType": "ethereum",
  "devdoc": {
    "kind": "dev",
    "methods": {},
    "version": 1
  },
  "userdoc": {
    "kind": "user",
    "methods": {},
    "version": 1
  }
}