{
  "contractName": "PublicCrossChain",
  "abi": [
    {
      "inputs": [],
      "stateMutability": "nonpayable",
      "type": "constructor"
    },
    {
      "anonymous": false,
      "inputs": [
        {
          "indexed": false,
          "internalType": "uint256",
          "name": "callId",
          "type": "uint256"
        },
        {
          "indexed": false,
          "internalType": "bool",
          "name": "status",
          "type": "bool"
        },
        {
          "indexed": false,
          "internalType": "string",
          "name": "returnedData",
          "type": "string"
        }
      ],
      "name": "CallbackRequestAcknowledged",
      "type": "event"
    },
    {
      "anonymous": false,
      "inputs": [
        {
          "indexed": false,
          "internalType": "uint256",
          "name": "source",
          "type": "uint256"
        },
        {
          "indexed": false,
          "internalType": "uint256",
          "name": "destination",
          "type": "uint256"
        },
        {
          "indexed": false,
          "internalType": "uint256",
          "name": "data",
          "type": "uint256"
        }
      ],
      "name": "CallbackRequestInitiated",
      "type": "event"
    },
    {
      "inputs": [],
      "name": "owner",
      "outputs": [
        {
          "internalType": "address",
          "name": "",
          "type": "address"
        }
      ],
      "stateMutability": "view",
      "type": "function",
      "constant": true
    },
    {
      "inputs": [
        {
          "internalType": "uint256",
          "name": "source",
          "type": "uint256"
        },
        {
          "internalType": "uint256",
          "name": "destination",
          "type": "uint256"
        },
        {
          "internalType": "uint256",
          "name": "data",
          "type": "uint256"
        }
      ],
      "name": "requestCall",
      "outputs": [],
      "stateMutability": "nonpayable",
      "type": "function"
    }
  ],
  "bytecode": "0x608060405234801561001057600080fd5b50336000806101000a81548173ffffffffffffffffffffffffffffffffffffffff021916908373ffffffffffffffffffffffffffffffffffffffff16021790555061023f806100606000396000f3fe608060405234801561001057600080fd5b50600436106100365760003560e01c80638da5cb5b1461003b578063a0cea73314610059575b600080fd5b610043610075565b604051610050919061011a565b60405180910390f35b610073600480360381019061006e9190610170565b610099565b005b60008054906101000a900473ffffffffffffffffffffffffffffffffffffffff1681565b7f91ecfabc798766c3aaf8fd14db13059c628f9bd99b7d8d05d67fd7d0555b404f8383836040516100cc939291906101d2565b60405180910390a1505050565b600073ffffffffffffffffffffffffffffffffffffffff82169050919050565b6000610104826100d9565b9050919050565b610114816100f9565b82525050565b600060208201905061012f600083018461010b565b92915050565b600080fd5b6000819050919050565b61014d8161013a565b811461015857600080fd5b50565b60008135905061016a81610144565b92915050565b60008060006060848603121561018957610188610135565b5b60006101978682870161015b565b93505060206101a88682870161015b565b92505060406101b98682870161015b565b9150509250925092565b6101cc8161013a565b82525050565b60006060820190506101e760008301866101c3565b6101f460208301856101c3565b61020160408301846101c3565b94935050505056fea2646970667358221220db362e586572598d8e5b933ff1ef57ada85013978ac4724f512e45f3a41c2bf664736f6c634300080b0033",
  "immutableReferences": {},
  "source": "// SPDX-License-Identifier: GPL-3.0\npragma solidity >=0.4.0 <0.9.0;\n\ncontract PublicCrossChain {\n    address public owner;\n\n    struct Call {\n        string source;\n        string destination;\n        string data;\n    }\n\n    struct Output {\n        bool status;\n        string returnedData;\n    }\n\n    event CallbackRequestInitiated(\n        uint256 source,\n        uint256 destination,\n        uint256 data\n    );\n    event CallbackRequestAcknowledged(\n        uint256 callId,\n        bool status,\n        string returnedData\n    );\n\n    constructor() {\n        owner = msg.sender;\n    }\n\n    function requestCall(\n        uint256 source,\n        uint256 destination,\n        uint256 data\n    ) public {\n        emit CallbackRequestInitiated(source, destination, data);\n    }\n}\n",
  "sourcePath": "/Users/achinthaikiriwatte/Desktop/MSC/Semester IV/Research/Prototype Development/public-network/contracts/CrossChain.sol",
  "compiler": {
    "name": "solc",
    "version": "0.8.11+commit.d7f03943.Emscripten.clang"
  },
  "schemaVersion": "3.4.5",
  "updatedAt": "2022-04-09T02:20:56.696Z",
  "networkType": "ethereum",
  "devdoc": {
    "kind": "dev",
    "methods": {},
    "version": 1
  },
  "userdoc": {
    "kind": "user",
    "methods": {},
    "version": 1
  }
}