{
  "contractName": "PublicCrossChain",
  "abi": [
    {
      "inputs": [],
      "stateMutability": "nonpayable",
      "type": "constructor"
    },
    {
      "anonymous": false,
      "inputs": [
        {
          "indexed": false,
          "internalType": "uint256",
          "name": "callId",
          "type": "uint256"
        },
        {
          "indexed": false,
          "internalType": "bool",
          "name": "status",
          "type": "bool"
        },
        {
          "indexed": false,
          "internalType": "string",
          "name": "returnedData",
          "type": "string"
        }
      ],
      "name": "CallbackRequestAcknowledged",
      "type": "event"
    },
    {
      "anonymous": false,
      "inputs": [
        {
          "indexed": false,
          "internalType": "uint256",
          "name": "source",
          "type": "uint256"
        },
        {
          "indexed": false,
          "internalType": "uint256",
          "name": "destination",
          "type": "uint256"
        },
        {
          "indexed": false,
          "internalType": "string",
          "name": "data",
          "type": "string"
        },
        {
          "indexed": false,
          "internalType": "address",
          "name": "callerAddress",
          "type": "address"
        }
      ],
      "name": "CallbackRequestInitiated",
      "type": "event"
    },
    {
      "inputs": [],
      "name": "owner",
      "outputs": [
        {
          "internalType": "address",
          "name": "",
          "type": "address"
        }
      ],
      "stateMutability": "view",
      "type": "function",
      "constant": true
    },
    {
      "inputs": [
        {
          "internalType": "address",
          "name": "",
          "type": "address"
        }
      ],
      "name": "users",
      "outputs": [
        {
          "internalType": "string",
          "name": "name",
          "type": "string"
        },
        {
          "internalType": "string",
          "name": "email",
          "type": "string"
        },
        {
          "internalType": "string",
          "name": "birthdate",
          "type": "string"
        },
        {
          "internalType": "uint256",
          "name": "age",
          "type": "uint256"
        },
        {
          "internalType": "string",
          "name": "phoneNumber",
          "type": "string"
        },
        {
          "internalType": "string",
          "name": "streetAddress",
          "type": "string"
        },
        {
          "internalType": "string",
          "name": "city",
          "type": "string"
        }
      ],
      "stateMutability": "view",
      "type": "function",
      "constant": true
    },
    {
      "inputs": [
        {
          "internalType": "uint256",
          "name": "source",
          "type": "uint256"
        },
        {
          "internalType": "uint256",
          "name": "destination",
          "type": "uint256"
        },
        {
          "internalType": "string",
          "name": "data",
          "type": "string"
        }
      ],
      "name": "requestCall",
      "outputs": [],
      "stateMutability": "nonpayable",
      "type": "function"
    },
    {
      "inputs": [
        {
          "internalType": "uint256",
          "name": "source",
          "type": "uint256"
        },
        {
          "internalType": "bool",
          "name": "status",
          "type": "bool"
        },
        {
          "internalType": "string",
          "name": "data",
          "type": "string"
        }
      ],
      "name": "acknowledgeCall",
      "outputs": [],
      "stateMutability": "nonpayable",
      "type": "function"
    },
    {
      "inputs": [
        {
          "internalType": "string",
          "name": "name",
          "type": "string"
        },
        {
          "internalType": "string",
          "name": "email",
          "type": "string"
        },
        {
          "internalType": "string",
          "name": "birthdate",
          "type": "string"
        },
        {
          "internalType": "uint256",
          "name": "age",
          "type": "uint256"
        },
        {
          "internalType": "string",
          "name": "phoneNumber",
          "type": "string"
        },
        {
          "internalType": "string",
          "name": "streetAddress",
          "type": "string"
        },
        {
          "internalType": "string",
          "name": "city",
          "type": "string"
        }
      ],
      "name": "registerUser",
      "outputs": [],
      "stateMutability": "nonpayable",
      "type": "function"
    },
    {
      "inputs": [],
      "name": "getUser",
      "outputs": [
        {
          "components": [
            {
              "internalType": "string",
              "name": "name",
              "type": "string"
            },
            {
              "internalType": "string",
              "name": "email",
              "type": "string"
            },
            {
              "internalType": "string",
              "name": "birthdate",
              "type": "string"
            },
            {
              "internalType": "uint256",
              "name": "age",
              "type": "uint256"
            },
            {
              "internalType": "string",
              "name": "phoneNumber",
              "type": "string"
            },
            {
              "internalType": "string",
              "name": "streetAddress",
              "type": "string"
            },
            {
              "internalType": "string",
              "name": "city",
              "type": "string"
            }
          ],
          "internalType": "struct PublicCrossChain.User",
          "name": "",
          "type": "tuple"
        }
      ],
      "stateMutability": "view",
      "type": "function",
      "constant": true
    }
  ],
  "bytecode": "0x608060405234801561001057600080fd5b50336000806101000a81548173ffffffffffffffffffffffffffffffffffffffff021916908373ffffffffffffffffffffffffffffffffffffffff160217905550611367806100606000396000f3fe608060405234801561001057600080fd5b50600436106100625760003560e01c8063667178db14610067578063832880e7146100835780638da5cb5b146100a1578063a7b6bbfe146100bf578063a87430ba146100db578063ced7786e14610111575b600080fd5b610081600480360381019061007c9190610cf0565b61012d565b005b61008b61016d565b6040516100989190610eb5565b60405180910390f35b6100a961053a565b6040516100b69190610f18565b60405180910390f35b6100d960048036038101906100d49190610f33565b61055e565b005b6100f560048036038101906100f091906110a9565b610694565b604051610108979695949392919061112f565b60405180910390f35b61012b600480360381019061012691906111c8565b610a06565b005b7f5e8caa9f9619ea47dcce5dd232458d793be4468622e3f095991662ce4747419e83838360405161016093929190611246565b60405180910390a1505050565b610175610a48565b600160003373ffffffffffffffffffffffffffffffffffffffff1673ffffffffffffffffffffffffffffffffffffffff1681526020019081526020016000206040518060e00160405290816000820180546101cf906112b3565b80601f01602080910402602001604051908101604052809291908181526020018280546101fb906112b3565b80156102485780601f1061021d57610100808354040283529160200191610248565b820191906000526020600020905b81548152906001019060200180831161022b57829003601f168201915b50505050508152602001600182018054610261906112b3565b80601f016020809104026020016040519081016040528092919081815260200182805461028d906112b3565b80156102da5780601f106102af576101008083540402835291602001916102da565b820191906000526020600020905b8154815290600101906020018083116102bd57829003601f168201915b505050505081526020016002820180546102f3906112b3565b80601f016020809104026020016040519081016040528092919081815260200182805461031f906112b3565b801561036c5780601f106103415761010080835404028352916020019161036c565b820191906000526020600020905b81548152906001019060200180831161034f57829003601f168201915b505050505081526020016003820154815260200160048201805461038f906112b3565b80601f01602080910402602001604051908101604052809291908181526020018280546103bb906112b3565b80156104085780601f106103dd57610100808354040283529160200191610408565b820191906000526020600020905b8154815290600101906020018083116103eb57829003601f168201915b50505050508152602001600582018054610421906112b3565b80601f016020809104026020016040519081016040528092919081815260200182805461044d906112b3565b801561049a5780601f1061046f5761010080835404028352916020019161049a565b820191906000526020600020905b81548152906001019060200180831161047d57829003601f168201915b505050505081526020016006820180546104b3906112b3565b80601f01602080910402602001604051908101604052809291908181526020018280546104df906112b3565b801561052c5780601f106105015761010080835404028352916020019161052c565b820191906000526020600020905b81548152906001019060200180831161050f57829003601f168201915b505050505081525050905090565b60008054906101000a900473ffffffffffffffffffffffffffffffffffffffff1681565b6040518060e0016040528088815260200187815260200186815260200185815260200184815260200183815260200182815250600160003373ffffffffffffffffffffffffffffffffffffffff1673ffffffffffffffffffffffffffffffffffffffff16815260200190815260200160002060008201518160000190805190602001906105ec929190610a85565b506020820151816001019080519060200190610609929190610a85565b506040820151816002019080519060200190610626929190610a85565b5060608201518160030155608082015181600401908051906020019061064d929190610a85565b5060a082015181600501908051906020019061066a929190610a85565b5060c0820151816006019080519060200190610687929190610a85565b5090505050505050505050565b60016020528060005260406000206000915090508060000180546106b7906112b3565b80601f01602080910402602001604051908101604052809291908181526020018280546106e3906112b3565b80156107305780601f1061070557610100808354040283529160200191610730565b820191906000526020600020905b81548152906001019060200180831161071357829003601f168201915b505050505090806001018054610745906112b3565b80601f0160208091040260200160405190810160405280929190818152602001828054610771906112b3565b80156107be5780601f10610793576101008083540402835291602001916107be565b820191906000526020600020905b8154815290600101906020018083116107a157829003601f168201915b5050505050908060020180546107d3906112b3565b80601f01602080910402602001604051908101604052809291908181526020018280546107ff906112b3565b801561084c5780601f106108215761010080835404028352916020019161084c565b820191906000526020600020905b81548152906001019060200180831161082f57829003601f168201915b505050505090806003015490806004018054610867906112b3565b80601f0160208091040260200160405190810160405280929190818152602001828054610893906112b3565b80156108e05780601f106108b5576101008083540402835291602001916108e0565b820191906000526020600020905b8154815290600101906020018083116108c357829003601f168201915b5050505050908060050180546108f5906112b3565b80601f0160208091040260200160405190810160405280929190818152602001828054610921906112b3565b801561096e5780601f106109435761010080835404028352916020019161096e565b820191906000526020600020905b81548152906001019060200180831161095157829003601f168201915b505050505090806006018054610983906112b3565b80601f01602080910402602001604051908101604052809291908181526020018280546109af906112b3565b80156109fc5780601f106109d1576101008083540402835291602001916109fc565b820191906000526020600020905b8154815290600101906020018083116109df57829003601f168201915b5050505050905087565b7fdd40430bb4122f8fd5decb91ae1d4474d2f41f88cb4ea9d6ecbd5cff997b203a83838333604051610a3b94939291906112e5565b60405180910390a1505050565b6040518060e00160405280606081526020016060815260200160608152602001600081526020016060815260200160608152602001606081525090565b828054610a91906112b3565b90600052602060002090601f016020900481019282610ab35760008555610afa565b82601f10610acc57805160ff1916838001178555610afa565b82800160010185558215610afa579182015b82811115610af9578251825591602001919060010190610ade565b5b509050610b079190610b0b565b5090565b5b80821115610b24576000816000905550600101610b0c565b5090565b6000604051905090565b600080fd5b600080fd5b6000819050919050565b610b4f81610b3c565b8114610b5a57600080fd5b50565b600081359050610b6c81610b46565b92915050565b60008115159050919050565b610b8781610b72565b8114610b9257600080fd5b50565b600081359050610ba481610b7e565b92915050565b600080fd5b600080fd5b6000601f19601f8301169050919050565b7f4e487b7100000000000000000000000000000000000000000000000000000000600052604160045260246000fd5b610bfd82610bb4565b810181811067ffffffffffffffff82111715610c1c57610c1b610bc5565b5b80604052505050565b6000610c2f610b28565b9050610c3b8282610bf4565b919050565b600067ffffffffffffffff821115610c5b57610c5a610bc5565b5b610c6482610bb4565b9050602081019050919050565b82818337600083830152505050565b6000610c93610c8e84610c40565b610c25565b905082815260208101848484011115610caf57610cae610baf565b5b610cba848285610c71565b509392505050565b600082601f830112610cd757610cd6610baa565b5b8135610ce7848260208601610c80565b91505092915050565b600080600060608486031215610d0957610d08610b32565b5b6000610d1786828701610b5d565b9350506020610d2886828701610b95565b925050604084013567ffffffffffffffff811115610d4957610d48610b37565b5b610d5586828701610cc2565b9150509250925092565b600081519050919050565b600082825260208201905092915050565b60005b83811015610d99578082015181840152602081019050610d7e565b83811115610da8576000848401525b50505050565b6000610db982610d5f565b610dc38185610d6a565b9350610dd3818560208601610d7b565b610ddc81610bb4565b840191505092915050565b610df081610b3c565b82525050565b600060e0830160008301518482036000860152610e138282610dae565b91505060208301518482036020860152610e2d8282610dae565b91505060408301518482036040860152610e478282610dae565b9150506060830151610e5c6060860182610de7565b5060808301518482036080860152610e748282610dae565b91505060a083015184820360a0860152610e8e8282610dae565b91505060c083015184820360c0860152610ea88282610dae565b9150508091505092915050565b60006020820190508181036000830152610ecf8184610df6565b905092915050565b600073ffffffffffffffffffffffffffffffffffffffff82169050919050565b6000610f0282610ed7565b9050919050565b610f1281610ef7565b82525050565b6000602082019050610f2d6000830184610f09565b92915050565b600080600080600080600060e0888a031215610f5257610f51610b32565b5b600088013567ffffffffffffffff811115610f7057610f6f610b37565b5b610f7c8a828b01610cc2565b975050602088013567ffffffffffffffff811115610f9d57610f9c610b37565b5b610fa98a828b01610cc2565b965050604088013567ffffffffffffffff811115610fca57610fc9610b37565b5b610fd68a828b01610cc2565b9550506060610fe78a828b01610b5d565b945050608088013567ffffffffffffffff81111561100857611007610b37565b5b6110148a828b01610cc2565b93505060a088013567ffffffffffffffff81111561103557611034610b37565b5b6110418a828b01610cc2565b92505060c088013567ffffffffffffffff81111561106257611061610b37565b5b61106e8a828b01610cc2565b91505092959891949750929550565b61108681610ef7565b811461109157600080fd5b50565b6000813590506110a38161107d565b92915050565b6000602082840312156110bf576110be610b32565b5b60006110cd84828501611094565b91505092915050565b600082825260208201905092915050565b60006110f282610d5f565b6110fc81856110d6565b935061110c818560208601610d7b565b61111581610bb4565b840191505092915050565b61112981610b3c565b82525050565b600060e0820190508181036000830152611149818a6110e7565b9050818103602083015261115d81896110e7565b9050818103604083015261117181886110e7565b90506111806060830187611120565b818103608083015261119281866110e7565b905081810360a08301526111a681856110e7565b905081810360c08301526111ba81846110e7565b905098975050505050505050565b6000806000606084860312156111e1576111e0610b32565b5b60006111ef86828701610b5d565b935050602061120086828701610b5d565b925050604084013567ffffffffffffffff81111561122157611220610b37565b5b61122d86828701610cc2565b9150509250925092565b61124081610b72565b82525050565b600060608201905061125b6000830186611120565b6112686020830185611237565b818103604083015261127a81846110e7565b9050949350505050565b7f4e487b7100000000000000000000000000000000000000000000000000000000600052602260045260246000fd5b600060028204905060018216806112cb57607f821691505b602082108114156112df576112de611284565b5b50919050565b60006080820190506112fa6000830187611120565b6113076020830186611120565b818103604083015261131981856110e7565b90506113286060830184610f09565b9594505050505056fea26469706673582212203e5155c30d5d8fb54678ac4b96c73baf802eaef931e201f47302ca03f252269464736f6c634300080b0033",
  "immutableReferences": {},
  "source": "// SPDX-License-Identifier: GPL-3.0\npragma solidity >=0.4.0 <0.9.0;\n\ncontract PublicCrossChain {\n    address public owner;\n\n    struct User {\n        string name;\n        string email;\n        string birthdate;\n        uint256 age;\n        string phoneNumber;\n        string streetAddress;\n        string city;\n    }\n\n    mapping(address => User) public users;\n\n    struct Call {\n        string source;\n        string destination;\n        string data;\n    }\n\n    struct Output {\n        bool status;\n        string returnedData;\n    }\n\n    event CallbackRequestInitiated(\n        uint256 source,\n        uint256 destination,\n        string data,\n        address callerAddress\n    );\n    event CallbackRequestAcknowledged(\n        uint256 callId,\n        bool status,\n        string returnedData\n    );\n\n    constructor() {\n        owner = msg.sender;\n    }\n\n    function requestCall(\n        uint256 source,\n        uint256 destination,\n        string memory data\n    ) public {\n        emit CallbackRequestInitiated(source, destination, data, msg.sender);\n    }\n\n    function acknowledgeCall(\n        uint256 source,\n        bool status,\n        string memory data\n    ) public {\n        emit CallbackRequestAcknowledged(source, status, data);\n    }\n\n    function registerUser(\n        string memory name,\n        string memory email,\n        string memory birthdate,\n        uint256 age,\n        string memory phoneNumber,\n        string memory streetAddress,\n        string memory city\n    ) public {\n        users[msg.sender] = User(\n            name,\n            email,\n            birthdate,\n            age,\n            phoneNumber,\n            streetAddress,\n            city\n        );\n    }\n\n    function getUser() public view returns (User memory) {\n        return users[msg.sender];\n    }\n}\n",
  "sourcePath": "/Users/achinthaikiriwatte/Desktop/MSC/Semester IV/Research/Prototype Development/public-network/contracts/CrossChain.sol",
  "compiler": {
    "name": "solc",
    "version": "0.8.11+commit.d7f03943.Emscripten.clang"
  },
  "schemaVersion": "3.4.5",
  "updatedAt": "2022-04-22T02:58:16.115Z",
  "networkType": "ethereum",
  "devdoc": {
    "kind": "dev",
    "methods": {},
    "version": 1
  },
  "userdoc": {
    "kind": "user",
    "methods": {},
    "version": 1
  }
}