{
  "contractName": "PublicCrossChain",
  "abi": [
    {
      "inputs": [],
      "stateMutability": "nonpayable",
      "type": "constructor"
    },
    {
      "anonymous": false,
      "inputs": [
        {
          "indexed": true,
          "internalType": "address",
          "name": "callerId",
          "type": "address"
        },
        {
          "indexed": false,
          "internalType": "bool",
          "name": "status",
          "type": "bool"
        },
        {
          "indexed": false,
          "internalType": "string",
          "name": "returnedData",
          "type": "string"
        }
      ],
      "name": "CallbackRequestAcknowledged",
      "type": "event"
    },
    {
      "anonymous": false,
      "inputs": [
        {
          "indexed": false,
          "internalType": "address",
          "name": "source",
          "type": "address"
        },
        {
          "indexed": false,
          "internalType": "uint256",
          "name": "destination",
          "type": "uint256"
        },
        {
          "indexed": false,
          "internalType": "string",
          "name": "data",
          "type": "string"
        },
        {
          "indexed": false,
          "internalType": "address",
          "name": "callerAddress",
          "type": "address"
        }
      ],
      "name": "CallbackRequestInitiated",
      "type": "event"
    },
    {
      "inputs": [],
      "name": "owner",
      "outputs": [
        {
          "internalType": "address",
          "name": "",
          "type": "address"
        }
      ],
      "stateMutability": "view",
      "type": "function",
      "constant": true
    },
    {
      "inputs": [
        {
          "internalType": "address",
          "name": "",
          "type": "address"
        }
      ],
      "name": "users",
      "outputs": [
        {
          "internalType": "string",
          "name": "name",
          "type": "string"
        },
        {
          "internalType": "string",
          "name": "email",
          "type": "string"
        },
        {
          "internalType": "string",
          "name": "birthdate",
          "type": "string"
        },
        {
          "internalType": "uint256",
          "name": "age",
          "type": "uint256"
        },
        {
          "internalType": "string",
          "name": "phoneNumber",
          "type": "string"
        },
        {
          "internalType": "string",
          "name": "streetAddress",
          "type": "string"
        },
        {
          "internalType": "string",
          "name": "city",
          "type": "string"
        }
      ],
      "stateMutability": "view",
      "type": "function",
      "constant": true
    },
    {
      "inputs": [
        {
          "internalType": "uint256",
          "name": "source",
          "type": "uint256"
        },
        {
          "internalType": "uint256",
          "name": "destination",
          "type": "uint256"
        },
        {
          "internalType": "string",
          "name": "data",
          "type": "string"
        }
      ],
      "name": "requestCall",
      "outputs": [],
      "stateMutability": "nonpayable",
      "type": "function"
    },
    {
      "inputs": [
        {
          "internalType": "address",
          "name": "caller",
          "type": "address"
        },
        {
          "internalType": "bool",
          "name": "status",
          "type": "bool"
        },
        {
          "internalType": "string",
          "name": "data",
          "type": "string"
        }
      ],
      "name": "acknowledgeCall",
      "outputs": [],
      "stateMutability": "nonpayable",
      "type": "function"
    },
    {
      "inputs": [
        {
          "internalType": "string",
          "name": "name",
          "type": "string"
        },
        {
          "internalType": "string",
          "name": "email",
          "type": "string"
        },
        {
          "internalType": "string",
          "name": "birthdate",
          "type": "string"
        },
        {
          "internalType": "uint256",
          "name": "age",
          "type": "uint256"
        },
        {
          "internalType": "string",
          "name": "phoneNumber",
          "type": "string"
        },
        {
          "internalType": "string",
          "name": "streetAddress",
          "type": "string"
        },
        {
          "internalType": "string",
          "name": "city",
          "type": "string"
        }
      ],
      "name": "registerUser",
      "outputs": [],
      "stateMutability": "nonpayable",
      "type": "function"
    },
    {
      "inputs": [],
      "name": "getUser",
      "outputs": [
        {
          "components": [
            {
              "internalType": "string",
              "name": "name",
              "type": "string"
            },
            {
              "internalType": "string",
              "name": "email",
              "type": "string"
            },
            {
              "internalType": "string",
              "name": "birthdate",
              "type": "string"
            },
            {
              "internalType": "uint256",
              "name": "age",
              "type": "uint256"
            },
            {
              "internalType": "string",
              "name": "phoneNumber",
              "type": "string"
            },
            {
              "internalType": "string",
              "name": "streetAddress",
              "type": "string"
            },
            {
              "internalType": "string",
              "name": "city",
              "type": "string"
            }
          ],
          "internalType": "struct PublicCrossChain.User",
          "name": "",
          "type": "tuple"
        }
      ],
      "stateMutability": "view",
      "type": "function",
      "constant": true
    }
  ],
  "bytecode": "0x608060405234801561001057600080fd5b50336000806101000a81548173ffffffffffffffffffffffffffffffffffffffff021916908373ffffffffffffffffffffffffffffffffffffffff16021790555061138e806100606000396000f3fe608060405234801561001057600080fd5b50600436106100625760003560e01c8063832880e7146100675780638da5cb5b14610085578063a7b6bbfe146100a3578063a87430ba146100bf578063b1b89302146100f5578063ced7786e14610111575b600080fd5b61006f61012d565b60405161007c9190610cce565b60405180910390f35b61008d6104fa565b60405161009a9190610d31565b60405180910390f35b6100bd60048036038101906100b89190610ec1565b61051e565b005b6100d960048036038101906100d49190611037565b610654565b6040516100ec97969594939291906110bd565b60405180910390f35b61010f600480360381019061010a919061118e565b6109c6565b005b61012b600480360381019061012691906111fd565b610a1b565b005b610135610a7d565b600160003373ffffffffffffffffffffffffffffffffffffffff1673ffffffffffffffffffffffffffffffffffffffff1681526020019081526020016000206040518060e001604052908160008201805461018f9061129b565b80601f01602080910402602001604051908101604052809291908181526020018280546101bb9061129b565b80156102085780601f106101dd57610100808354040283529160200191610208565b820191906000526020600020905b8154815290600101906020018083116101eb57829003601f168201915b505050505081526020016001820180546102219061129b565b80601f016020809104026020016040519081016040528092919081815260200182805461024d9061129b565b801561029a5780601f1061026f5761010080835404028352916020019161029a565b820191906000526020600020905b81548152906001019060200180831161027d57829003601f168201915b505050505081526020016002820180546102b39061129b565b80601f01602080910402602001604051908101604052809291908181526020018280546102df9061129b565b801561032c5780601f106103015761010080835404028352916020019161032c565b820191906000526020600020905b81548152906001019060200180831161030f57829003601f168201915b505050505081526020016003820154815260200160048201805461034f9061129b565b80601f016020809104026020016040519081016040528092919081815260200182805461037b9061129b565b80156103c85780601f1061039d576101008083540402835291602001916103c8565b820191906000526020600020905b8154815290600101906020018083116103ab57829003601f168201915b505050505081526020016005820180546103e19061129b565b80601f016020809104026020016040519081016040528092919081815260200182805461040d9061129b565b801561045a5780601f1061042f5761010080835404028352916020019161045a565b820191906000526020600020905b81548152906001019060200180831161043d57829003601f168201915b505050505081526020016006820180546104739061129b565b80601f016020809104026020016040519081016040528092919081815260200182805461049f9061129b565b80156104ec5780601f106104c1576101008083540402835291602001916104ec565b820191906000526020600020905b8154815290600101906020018083116104cf57829003601f168201915b505050505081525050905090565b60008054906101000a900473ffffffffffffffffffffffffffffffffffffffff1681565b6040518060e0016040528088815260200187815260200186815260200185815260200184815260200183815260200182815250600160003373ffffffffffffffffffffffffffffffffffffffff1673ffffffffffffffffffffffffffffffffffffffff16815260200190815260200160002060008201518160000190805190602001906105ac929190610aba565b5060208201518160010190805190602001906105c9929190610aba565b5060408201518160020190805190602001906105e6929190610aba565b5060608201518160030155608082015181600401908051906020019061060d929190610aba565b5060a082015181600501908051906020019061062a929190610aba565b5060c0820151816006019080519060200190610647929190610aba565b5090505050505050505050565b60016020528060005260406000206000915090508060000180546106779061129b565b80601f01602080910402602001604051908101604052809291908181526020018280546106a39061129b565b80156106f05780601f106106c5576101008083540402835291602001916106f0565b820191906000526020600020905b8154815290600101906020018083116106d357829003601f168201915b5050505050908060010180546107059061129b565b80601f01602080910402602001604051908101604052809291908181526020018280546107319061129b565b801561077e5780601f106107535761010080835404028352916020019161077e565b820191906000526020600020905b81548152906001019060200180831161076157829003601f168201915b5050505050908060020180546107939061129b565b80601f01602080910402602001604051908101604052809291908181526020018280546107bf9061129b565b801561080c5780601f106107e15761010080835404028352916020019161080c565b820191906000526020600020905b8154815290600101906020018083116107ef57829003601f168201915b5050505050908060030154908060040180546108279061129b565b80601f01602080910402602001604051908101604052809291908181526020018280546108539061129b565b80156108a05780601f10610875576101008083540402835291602001916108a0565b820191906000526020600020905b81548152906001019060200180831161088357829003601f168201915b5050505050908060050180546108b59061129b565b80601f01602080910402602001604051908101604052809291908181526020018280546108e19061129b565b801561092e5780601f106109035761010080835404028352916020019161092e565b820191906000526020600020905b81548152906001019060200180831161091157829003601f168201915b5050505050908060060180546109439061129b565b80601f016020809104026020016040519081016040528092919081815260200182805461096f9061129b565b80156109bc5780601f10610991576101008083540402835291602001916109bc565b820191906000526020600020905b81548152906001019060200180831161099f57829003601f168201915b5050505050905087565b8273ffffffffffffffffffffffffffffffffffffffff167f59dbbd50d1a4120fc2b870efce4b8e7346eac65ae343e2eac2c94fe708b215ee8383604051610a0e9291906112dc565b60405180910390a2505050565b7f71c29f7991654636033bda96f1903af23aff2eb0a1fd86d22c917aa62029893760008054906101000a900473ffffffffffffffffffffffffffffffffffffffff16838333604051610a70949392919061130c565b60405180910390a1505050565b6040518060e00160405280606081526020016060815260200160608152602001600081526020016060815260200160608152602001606081525090565b828054610ac69061129b565b90600052602060002090601f016020900481019282610ae85760008555610b2f565b82601f10610b0157805160ff1916838001178555610b2f565b82800160010185558215610b2f579182015b82811115610b2e578251825591602001919060010190610b13565b5b509050610b3c9190610b40565b5090565b5b80821115610b59576000816000905550600101610b41565b5090565b600081519050919050565b600082825260208201905092915050565b60005b83811015610b97578082015181840152602081019050610b7c565b83811115610ba6576000848401525b50505050565b6000601f19601f8301169050919050565b6000610bc882610b5d565b610bd28185610b68565b9350610be2818560208601610b79565b610beb81610bac565b840191505092915050565b6000819050919050565b610c0981610bf6565b82525050565b600060e0830160008301518482036000860152610c2c8282610bbd565b91505060208301518482036020860152610c468282610bbd565b91505060408301518482036040860152610c608282610bbd565b9150506060830151610c756060860182610c00565b5060808301518482036080860152610c8d8282610bbd565b91505060a083015184820360a0860152610ca78282610bbd565b91505060c083015184820360c0860152610cc18282610bbd565b9150508091505092915050565b60006020820190508181036000830152610ce88184610c0f565b905092915050565b600073ffffffffffffffffffffffffffffffffffffffff82169050919050565b6000610d1b82610cf0565b9050919050565b610d2b81610d10565b82525050565b6000602082019050610d466000830184610d22565b92915050565b6000604051905090565b600080fd5b600080fd5b600080fd5b600080fd5b7f4e487b7100000000000000000000000000000000000000000000000000000000600052604160045260246000fd5b610da282610bac565b810181811067ffffffffffffffff82111715610dc157610dc0610d6a565b5b80604052505050565b6000610dd4610d4c565b9050610de08282610d99565b919050565b600067ffffffffffffffff821115610e0057610dff610d6a565b5b610e0982610bac565b9050602081019050919050565b82818337600083830152505050565b6000610e38610e3384610de5565b610dca565b905082815260208101848484011115610e5457610e53610d65565b5b610e5f848285610e16565b509392505050565b600082601f830112610e7c57610e7b610d60565b5b8135610e8c848260208601610e25565b91505092915050565b610e9e81610bf6565b8114610ea957600080fd5b50565b600081359050610ebb81610e95565b92915050565b600080600080600080600060e0888a031215610ee057610edf610d56565b5b600088013567ffffffffffffffff811115610efe57610efd610d5b565b5b610f0a8a828b01610e67565b975050602088013567ffffffffffffffff811115610f2b57610f2a610d5b565b5b610f378a828b01610e67565b965050604088013567ffffffffffffffff811115610f5857610f57610d5b565b5b610f648a828b01610e67565b9550506060610f758a828b01610eac565b945050608088013567ffffffffffffffff811115610f9657610f95610d5b565b5b610fa28a828b01610e67565b93505060a088013567ffffffffffffffff811115610fc357610fc2610d5b565b5b610fcf8a828b01610e67565b92505060c088013567ffffffffffffffff811115610ff057610fef610d5b565b5b610ffc8a828b01610e67565b91505092959891949750929550565b61101481610d10565b811461101f57600080fd5b50565b6000813590506110318161100b565b92915050565b60006020828403121561104d5761104c610d56565b5b600061105b84828501611022565b91505092915050565b600082825260208201905092915050565b600061108082610b5d565b61108a8185611064565b935061109a818560208601610b79565b6110a381610bac565b840191505092915050565b6110b781610bf6565b82525050565b600060e08201905081810360008301526110d7818a611075565b905081810360208301526110eb8189611075565b905081810360408301526110ff8188611075565b905061110e60608301876110ae565b81810360808301526111208186611075565b905081810360a08301526111348185611075565b905081810360c08301526111488184611075565b905098975050505050505050565b60008115159050919050565b61116b81611156565b811461117657600080fd5b50565b60008135905061118881611162565b92915050565b6000806000606084860312156111a7576111a6610d56565b5b60006111b586828701611022565b93505060206111c686828701611179565b925050604084013567ffffffffffffffff8111156111e7576111e6610d5b565b5b6111f386828701610e67565b9150509250925092565b60008060006060848603121561121657611215610d56565b5b600061122486828701610eac565b935050602061123586828701610eac565b925050604084013567ffffffffffffffff81111561125657611255610d5b565b5b61126286828701610e67565b9150509250925092565b7f4e487b7100000000000000000000000000000000000000000000000000000000600052602260045260246000fd5b600060028204905060018216806112b357607f821691505b602082108114156112c7576112c661126c565b5b50919050565b6112d681611156565b82525050565b60006040820190506112f160008301856112cd565b81810360208301526113038184611075565b90509392505050565b60006080820190506113216000830187610d22565b61132e60208301866110ae565b81810360408301526113408185611075565b905061134f6060830184610d22565b9594505050505056fea26469706673582212209a86f0aad858054061e127560bee26b6b7e1e069dfaf540238d7536b94c7afb564736f6c634300080b0033",
  "immutableReferences": {},
  "source": "// SPDX-License-Identifier: GPL-3.0\npragma solidity >=0.4.0 <0.9.0;\n\ncontract PublicCrossChain {\n    address public owner;\n\n    struct User {\n        string name;\n        string email;\n        string birthdate;\n        uint256 age;\n        string phoneNumber;\n        string streetAddress;\n        string city;\n    }\n\n    mapping(address => User) public users;\n\n    struct Call {\n        address source;\n        address destination;\n        string data;\n    }\n\n    struct Output {\n        bool status;\n        string returnedData;\n    }\n\n    event CallbackRequestInitiated(\n        address source,\n        uint256 destination,\n        string data,\n        address callerAddress\n    );\n\n    event CallbackRequestAcknowledged(\n        address indexed callerId,\n        bool status,\n        string returnedData\n    );\n\n    constructor() {\n        owner = msg.sender;\n    }\n\n    function requestCall(\n        uint256 source,\n        uint256 destination,\n        string memory data\n    ) external {\n        emit CallbackRequestInitiated(owner, destination, data, msg.sender);\n    }\n\n    function acknowledgeCall(\n        address caller,\n        bool status,\n        string memory data\n    ) external {\n        emit CallbackRequestAcknowledged(caller, status, data);\n    }\n\n    function registerUser(\n        string memory name,\n        string memory email,\n        string memory birthdate,\n        uint256 age,\n        string memory phoneNumber,\n        string memory streetAddress,\n        string memory city\n    ) external {\n        users[msg.sender] = User(\n            name,\n            email,\n            birthdate,\n            age,\n            phoneNumber,\n            streetAddress,\n            city\n        );\n    }\n\n    function getUser() public view returns (User memory) {\n        return users[msg.sender];\n    }\n}\n",
  "sourcePath": "/Users/achinthaikiriwatte/Desktop/MSC/Semester IV/Research/Prototype Development/public-network/contracts/CrossChain.sol",
  "compiler": {
    "name": "solc",
    "version": "0.8.11+commit.d7f03943.Emscripten.clang"
  },
  "schemaVersion": "3.4.5",
  "updatedAt": "2022-04-23T10:42:55.690Z",
  "networkType": "ethereum",
  "devdoc": {
    "kind": "dev",
    "methods": {},
    "version": 1
  },
  "userdoc": {
    "kind": "user",
    "methods": {},
    "version": 1
  }
}