{
  "contractName": "PublicCrossChain",
  "abi": [
    {
      "inputs": [],
      "stateMutability": "nonpayable",
      "type": "constructor"
    },
    {
      "anonymous": false,
      "inputs": [
        {
          "indexed": true,
          "internalType": "address",
          "name": "callerId",
          "type": "address"
        },
        {
          "indexed": false,
          "internalType": "bool",
          "name": "status",
          "type": "bool"
        },
        {
          "indexed": false,
          "internalType": "string",
          "name": "returnedData",
          "type": "string"
        }
      ],
      "name": "CallbackRequestAcknowledged",
      "type": "event"
    },
    {
      "anonymous": false,
      "inputs": [
        {
          "indexed": false,
          "internalType": "address",
          "name": "source",
          "type": "address"
        },
        {
          "indexed": false,
          "internalType": "uint256",
          "name": "destination",
          "type": "uint256"
        },
        {
          "indexed": false,
          "internalType": "string",
          "name": "data",
          "type": "string"
        },
        {
          "indexed": false,
          "internalType": "address",
          "name": "callerAddress",
          "type": "address"
        }
      ],
      "name": "CallbackRequestInitiated",
      "type": "event"
    },
    {
      "inputs": [],
      "name": "nextRequest",
      "outputs": [
        {
          "internalType": "uint256",
          "name": "",
          "type": "uint256"
        }
      ],
      "stateMutability": "view",
      "type": "function",
      "constant": true
    },
    {
      "inputs": [],
      "name": "owner",
      "outputs": [
        {
          "internalType": "address",
          "name": "",
          "type": "address"
        }
      ],
      "stateMutability": "view",
      "type": "function",
      "constant": true
    },
    {
      "inputs": [
        {
          "internalType": "uint256",
          "name": "",
          "type": "uint256"
        }
      ],
      "name": "pendingRequests",
      "outputs": [
        {
          "internalType": "address",
          "name": "source",
          "type": "address"
        },
        {
          "internalType": "uint256",
          "name": "destination",
          "type": "uint256"
        },
        {
          "internalType": "string",
          "name": "data",
          "type": "string"
        },
        {
          "internalType": "address",
          "name": "caller",
          "type": "address"
        }
      ],
      "stateMutability": "view",
      "type": "function",
      "constant": true
    },
    {
      "inputs": [
        {
          "internalType": "address",
          "name": "",
          "type": "address"
        }
      ],
      "name": "users",
      "outputs": [
        {
          "internalType": "string",
          "name": "name",
          "type": "string"
        },
        {
          "internalType": "string",
          "name": "email",
          "type": "string"
        },
        {
          "internalType": "string",
          "name": "birthdate",
          "type": "string"
        },
        {
          "internalType": "uint256",
          "name": "age",
          "type": "uint256"
        },
        {
          "internalType": "string",
          "name": "phoneNumber",
          "type": "string"
        },
        {
          "internalType": "string",
          "name": "streetAddress",
          "type": "string"
        },
        {
          "internalType": "string",
          "name": "city",
          "type": "string"
        }
      ],
      "stateMutability": "view",
      "type": "function",
      "constant": true
    },
    {
      "inputs": [
        {
          "internalType": "uint256",
          "name": "destination",
          "type": "uint256"
        },
        {
          "internalType": "string",
          "name": "data",
          "type": "string"
        }
      ],
      "name": "requestCall",
      "outputs": [],
      "stateMutability": "nonpayable",
      "type": "function"
    },
    {
      "inputs": [
        {
          "internalType": "address",
          "name": "caller",
          "type": "address"
        },
        {
          "internalType": "bool",
          "name": "status",
          "type": "bool"
        },
        {
          "internalType": "string",
          "name": "data",
          "type": "string"
        }
      ],
      "name": "acknowledgeCall",
      "outputs": [],
      "stateMutability": "nonpayable",
      "type": "function"
    },
    {
      "inputs": [
        {
          "internalType": "string",
          "name": "name",
          "type": "string"
        },
        {
          "internalType": "string",
          "name": "email",
          "type": "string"
        },
        {
          "internalType": "string",
          "name": "birthdate",
          "type": "string"
        },
        {
          "internalType": "uint256",
          "name": "age",
          "type": "uint256"
        },
        {
          "internalType": "string",
          "name": "phoneNumber",
          "type": "string"
        },
        {
          "internalType": "string",
          "name": "streetAddress",
          "type": "string"
        },
        {
          "internalType": "string",
          "name": "city",
          "type": "string"
        }
      ],
      "name": "registerUser",
      "outputs": [],
      "stateMutability": "nonpayable",
      "type": "function"
    },
    {
      "inputs": [],
      "name": "getUser",
      "outputs": [
        {
          "components": [
            {
              "internalType": "string",
              "name": "name",
              "type": "string"
            },
            {
              "internalType": "string",
              "name": "email",
              "type": "string"
            },
            {
              "internalType": "string",
              "name": "birthdate",
              "type": "string"
            },
            {
              "internalType": "uint256",
              "name": "age",
              "type": "uint256"
            },
            {
              "internalType": "string",
              "name": "phoneNumber",
              "type": "string"
            },
            {
              "internalType": "string",
              "name": "streetAddress",
              "type": "string"
            },
            {
              "internalType": "string",
              "name": "city",
              "type": "string"
            }
          ],
          "internalType": "struct PublicCrossChain.User",
          "name": "",
          "type": "tuple"
        }
      ],
      "stateMutability": "view",
      "type": "function",
      "constant": true
    },
    {
      "inputs": [],
      "name": "getNumberOfPendingCalls",
      "outputs": [
        {
          "internalType": "uint256",
          "name": "",
          "type": "uint256"
        }
      ],
      "stateMutability": "view",
      "type": "function",
      "constant": true
    }
  ],
  "bytecode": "0x608060405234801561001057600080fd5b50336000806101000a81548173ffffffffffffffffffffffffffffffffffffffff021916908373ffffffffffffffffffffffffffffffffffffffff1602179055506117e3806100606000396000f3fe608060405234801561001057600080fd5b50600436106100935760003560e01c8063a7b6bbfe11610066578063a7b6bbfe14610125578063a87430ba14610141578063b1b8930214610177578063ed049e7214610193578063f59b5f36146101af57610093565b80632c564e92146100985780633c652a9a146100b6578063832880e7146100e95780638da5cb5b14610107575b600080fd5b6100a06101cd565b6040516100ad9190610eb2565b60405180910390f35b6100d060048036038101906100cb9190610f0d565b6101d7565b6040516100e09493929190611014565b60405180910390f35b6100f16102cf565b6040516100fe9190611178565b60405180910390f35b61010f61069c565b60405161011c919061119a565b60405180910390f35b61013f600480360381019061013a91906112ea565b6106c0565b005b61015b60048036038101906101569190611460565b6107f6565b60405161016e979695949392919061148d565b60405180910390f35b610191600480360381019061018c919061155e565b610b68565b005b6101ad60048036038101906101a891906115cd565b610bbd565b005b6101b7610db3565b6040516101c49190610eb2565b60405180910390f35b6000600154905090565b60036020528060005260406000206000915090508060000160009054906101000a900473ffffffffffffffffffffffffffffffffffffffff169080600101549080600201805461022690611658565b80601f016020809104026020016040519081016040528092919081815260200182805461025290611658565b801561029f5780601f106102745761010080835404028352916020019161029f565b820191906000526020600020905b81548152906001019060200180831161028257829003601f168201915b5050505050908060030160009054906101000a900473ffffffffffffffffffffffffffffffffffffffff16905084565b6102d7610db9565b600260003373ffffffffffffffffffffffffffffffffffffffff1673ffffffffffffffffffffffffffffffffffffffff1681526020019081526020016000206040518060e001604052908160008201805461033190611658565b80601f016020809104026020016040519081016040528092919081815260200182805461035d90611658565b80156103aa5780601f1061037f576101008083540402835291602001916103aa565b820191906000526020600020905b81548152906001019060200180831161038d57829003601f168201915b505050505081526020016001820180546103c390611658565b80601f01602080910402602001604051908101604052809291908181526020018280546103ef90611658565b801561043c5780601f106104115761010080835404028352916020019161043c565b820191906000526020600020905b81548152906001019060200180831161041f57829003601f168201915b5050505050815260200160028201805461045590611658565b80601f016020809104026020016040519081016040528092919081815260200182805461048190611658565b80156104ce5780601f106104a3576101008083540402835291602001916104ce565b820191906000526020600020905b8154815290600101906020018083116104b157829003601f168201915b50505050508152602001600382015481526020016004820180546104f190611658565b80601f016020809104026020016040519081016040528092919081815260200182805461051d90611658565b801561056a5780601f1061053f5761010080835404028352916020019161056a565b820191906000526020600020905b81548152906001019060200180831161054d57829003601f168201915b5050505050815260200160058201805461058390611658565b80601f01602080910402602001604051908101604052809291908181526020018280546105af90611658565b80156105fc5780601f106105d1576101008083540402835291602001916105fc565b820191906000526020600020905b8154815290600101906020018083116105df57829003601f168201915b5050505050815260200160068201805461061590611658565b80601f016020809104026020016040519081016040528092919081815260200182805461064190611658565b801561068e5780601f106106635761010080835404028352916020019161068e565b820191906000526020600020905b81548152906001019060200180831161067157829003601f168201915b505050505081525050905090565b60008054906101000a900473ffffffffffffffffffffffffffffffffffffffff1681565b6040518060e0016040528088815260200187815260200186815260200185815260200184815260200183815260200182815250600260003373ffffffffffffffffffffffffffffffffffffffff1673ffffffffffffffffffffffffffffffffffffffff168152602001908152602001600020600082015181600001908051906020019061074e929190610df6565b50602082015181600101908051906020019061076b929190610df6565b506040820151816002019080519060200190610788929190610df6565b506060820151816003015560808201518160040190805190602001906107af929190610df6565b5060a08201518160050190805190602001906107cc929190610df6565b5060c08201518160060190805190602001906107e9929190610df6565b5090505050505050505050565b600260205280600052604060002060009150905080600001805461081990611658565b80601f016020809104026020016040519081016040528092919081815260200182805461084590611658565b80156108925780601f1061086757610100808354040283529160200191610892565b820191906000526020600020905b81548152906001019060200180831161087557829003601f168201915b5050505050908060010180546108a790611658565b80601f01602080910402602001604051908101604052809291908181526020018280546108d390611658565b80156109205780601f106108f557610100808354040283529160200191610920565b820191906000526020600020905b81548152906001019060200180831161090357829003601f168201915b50505050509080600201805461093590611658565b80601f016020809104026020016040519081016040528092919081815260200182805461096190611658565b80156109ae5780601f10610983576101008083540402835291602001916109ae565b820191906000526020600020905b81548152906001019060200180831161099157829003601f168201915b5050505050908060030154908060040180546109c990611658565b80601f01602080910402602001604051908101604052809291908181526020018280546109f590611658565b8015610a425780601f10610a1757610100808354040283529160200191610a42565b820191906000526020600020905b815481529060010190602001808311610a2557829003601f168201915b505050505090806005018054610a5790611658565b80601f0160208091040260200160405190810160405280929190818152602001828054610a8390611658565b8015610ad05780601f10610aa557610100808354040283529160200191610ad0565b820191906000526020600020905b815481529060010190602001808311610ab357829003601f168201915b505050505090806006018054610ae590611658565b80601f0160208091040260200160405190810160405280929190818152602001828054610b1190611658565b8015610b5e5780601f10610b3357610100808354040283529160200191610b5e565b820191906000526020600020905b815481529060010190602001808311610b4157829003601f168201915b5050505050905087565b8273ffffffffffffffffffffffffffffffffffffffff167f59dbbd50d1a4120fc2b870efce4b8e7346eac65ae343e2eac2c94fe708b215ee8383604051610bb0929190611699565b60405180910390a2505050565b60008211610c00576040517f08c379a0000000000000000000000000000000000000000000000000000000008152600401610bf790611715565b60405180910390fd5b604051806080016040528060008054906101000a900473ffffffffffffffffffffffffffffffffffffffff1673ffffffffffffffffffffffffffffffffffffffff1681526020018381526020018281526020013373ffffffffffffffffffffffffffffffffffffffff1681525060036000600154815260200190815260200160002060008201518160000160006101000a81548173ffffffffffffffffffffffffffffffffffffffff021916908373ffffffffffffffffffffffffffffffffffffffff160217905550602082015181600101556040820151816002019080519060200190610cef929190610df6565b5060608201518160030160006101000a81548173ffffffffffffffffffffffffffffffffffffffff021916908373ffffffffffffffffffffffffffffffffffffffff1602179055509050507f71c29f7991654636033bda96f1903af23aff2eb0a1fd86d22c917aa62029893760008054906101000a900473ffffffffffffffffffffffffffffffffffffffff16838333604051610d8f9493929190611014565b60405180910390a160016000815480929190610daa90611764565b91905055505050565b60015481565b6040518060e00160405280606081526020016060815260200160608152602001600081526020016060815260200160608152602001606081525090565b828054610e0290611658565b90600052602060002090601f016020900481019282610e245760008555610e6b565b82601f10610e3d57805160ff1916838001178555610e6b565b82800160010185558215610e6b579182015b82811115610e6a578251825591602001919060010190610e4f565b5b509050610e789190610e7c565b5090565b5b80821115610e95576000816000905550600101610e7d565b5090565b6000819050919050565b610eac81610e99565b82525050565b6000602082019050610ec76000830184610ea3565b92915050565b6000604051905090565b600080fd5b600080fd5b610eea81610e99565b8114610ef557600080fd5b50565b600081359050610f0781610ee1565b92915050565b600060208284031215610f2357610f22610ed7565b5b6000610f3184828501610ef8565b91505092915050565b600073ffffffffffffffffffffffffffffffffffffffff82169050919050565b6000610f6582610f3a565b9050919050565b610f7581610f5a565b82525050565b600081519050919050565b600082825260208201905092915050565b60005b83811015610fb5578082015181840152602081019050610f9a565b83811115610fc4576000848401525b50505050565b6000601f19601f8301169050919050565b6000610fe682610f7b565b610ff08185610f86565b9350611000818560208601610f97565b61100981610fca565b840191505092915050565b60006080820190506110296000830187610f6c565b6110366020830186610ea3565b81810360408301526110488185610fdb565b90506110576060830184610f6c565b95945050505050565b600082825260208201905092915050565b600061107c82610f7b565b6110868185611060565b9350611096818560208601610f97565b61109f81610fca565b840191505092915050565b6110b381610e99565b82525050565b600060e08301600083015184820360008601526110d68282611071565b915050602083015184820360208601526110f08282611071565b9150506040830151848203604086015261110a8282611071565b915050606083015161111f60608601826110aa565b50608083015184820360808601526111378282611071565b91505060a083015184820360a08601526111518282611071565b91505060c083015184820360c086015261116b8282611071565b9150508091505092915050565b6000602082019050818103600083015261119281846110b9565b905092915050565b60006020820190506111af6000830184610f6c565b92915050565b600080fd5b600080fd5b7f4e487b7100000000000000000000000000000000000000000000000000000000600052604160045260246000fd5b6111f782610fca565b810181811067ffffffffffffffff82111715611216576112156111bf565b5b80604052505050565b6000611229610ecd565b905061123582826111ee565b919050565b600067ffffffffffffffff821115611255576112546111bf565b5b61125e82610fca565b9050602081019050919050565b82818337600083830152505050565b600061128d6112888461123a565b61121f565b9050828152602081018484840111156112a9576112a86111ba565b5b6112b484828561126b565b509392505050565b600082601f8301126112d1576112d06111b5565b5b81356112e184826020860161127a565b91505092915050565b600080600080600080600060e0888a03121561130957611308610ed7565b5b600088013567ffffffffffffffff81111561132757611326610edc565b5b6113338a828b016112bc565b975050602088013567ffffffffffffffff81111561135457611353610edc565b5b6113608a828b016112bc565b965050604088013567ffffffffffffffff81111561138157611380610edc565b5b61138d8a828b016112bc565b955050606061139e8a828b01610ef8565b945050608088013567ffffffffffffffff8111156113bf576113be610edc565b5b6113cb8a828b016112bc565b93505060a088013567ffffffffffffffff8111156113ec576113eb610edc565b5b6113f88a828b016112bc565b92505060c088013567ffffffffffffffff81111561141957611418610edc565b5b6114258a828b016112bc565b91505092959891949750929550565b61143d81610f5a565b811461144857600080fd5b50565b60008135905061145a81611434565b92915050565b60006020828403121561147657611475610ed7565b5b60006114848482850161144b565b91505092915050565b600060e08201905081810360008301526114a7818a610fdb565b905081810360208301526114bb8189610fdb565b905081810360408301526114cf8188610fdb565b90506114de6060830187610ea3565b81810360808301526114f08186610fdb565b905081810360a08301526115048185610fdb565b905081810360c08301526115188184610fdb565b905098975050505050505050565b60008115159050919050565b61153b81611526565b811461154657600080fd5b50565b60008135905061155881611532565b92915050565b60008060006060848603121561157757611576610ed7565b5b60006115858682870161144b565b935050602061159686828701611549565b925050604084013567ffffffffffffffff8111156115b7576115b6610edc565b5b6115c3868287016112bc565b9150509250925092565b600080604083850312156115e4576115e3610ed7565b5b60006115f285828601610ef8565b925050602083013567ffffffffffffffff81111561161357611612610edc565b5b61161f858286016112bc565b9150509250929050565b7f4e487b7100000000000000000000000000000000000000000000000000000000600052602260045260246000fd5b6000600282049050600182168061167057607f821691505b6020821081141561168457611683611629565b5b50919050565b61169381611526565b82525050565b60006040820190506116ae600083018561168a565b81810360208301526116c08184610fdb565b90509392505050565b7f496e76616c69642063726f7373636861696e207472616e61736374696f6e0000600082015250565b60006116ff601e83610f86565b915061170a826116c9565b602082019050919050565b6000602082019050818103600083015261172e816116f2565b9050919050565b7f4e487b7100000000000000000000000000000000000000000000000000000000600052601160045260246000fd5b600061176f82610e99565b91507fffffffffffffffffffffffffffffffffffffffffffffffffffffffffffffffff8214156117a2576117a1611735565b5b60018201905091905056fea26469706673582212202400b48b089d656a8c96cceea09b46998c0b4982727cab55554c86687261b0c764736f6c634300080b0033",
  "immutableReferences": {},
  "source": "// SPDX-License-Identifier: GPL-3.0\npragma solidity >=0.4.0 <0.9.0;\n\ncontract PublicCrossChain {\n    address public owner;\n    uint256 public nextRequest;\n\n    struct User {\n        string name;\n        string email;\n        string birthdate;\n        uint256 age;\n        string phoneNumber;\n        string streetAddress;\n        string city;\n    }\n\n    mapping(address => User) public users;\n\n    struct Call {\n        address source;\n        uint256 destination;\n        string data;\n        address caller;\n    }\n\n    mapping(uint256 => Call) public pendingRequests;\n\n    struct Output {\n        bool status;\n        string returnedData;\n    }\n\n    event CallbackRequestInitiated(\n        address source,\n        uint256 destination,\n        string data,\n        address callerAddress\n    );\n\n    event CallbackRequestAcknowledged(\n        address indexed callerId,\n        bool status,\n        string returnedData\n    );\n\n    constructor() {\n        owner = msg.sender;\n    }\n\n    function requestCall(uint256 destination, string memory data) external {\n        require(destination > 0, \"Invalid crosschain tranasction\");\n        pendingRequests[nextRequest] = Call(\n            owner,\n            destination,\n            data,\n            msg.sender\n        );\n        emit CallbackRequestInitiated(owner, destination, data, msg.sender);\n        nextRequest++;\n    }\n\n    function acknowledgeCall(\n        address caller,\n        bool status,\n        string memory data\n    ) external {\n        emit CallbackRequestAcknowledged(caller, status, data);\n    }\n\n    function registerUser(\n        string memory name,\n        string memory email,\n        string memory birthdate,\n        uint256 age,\n        string memory phoneNumber,\n        string memory streetAddress,\n        string memory city\n    ) external {\n        users[msg.sender] = User(\n            name,\n            email,\n            birthdate,\n            age,\n            phoneNumber,\n            streetAddress,\n            city\n        );\n    }\n\n    function getUser() public view returns (User memory) {\n        return users[msg.sender];\n    }\n\n    function getNumberOfPendingCalls() public view returns (uint256) {\n        return nextRequest;\n    }\n}\n",
  "sourcePath": "/Users/achinthaikiriwatte/Desktop/MSC/Semester IV/Research/Prototype Development/public-network/contracts/CrossChain.sol",
  "compiler": {
    "name": "solc",
    "version": "0.8.11+commit.d7f03943.Emscripten.clang"
  },
  "schemaVersion": "3.4.5",
  "updatedAt": "2022-04-30T14:43:59.307Z",
  "networkType": "ethereum",
  "devdoc": {
    "kind": "dev",
    "methods": {},
    "version": 1
  },
  "userdoc": {
    "kind": "user",
    "methods": {},
    "version": 1
  }
}