{
  "contractName": "MedicalOracle",
  "abi": [
    {
      "inputs": [],
      "stateMutability": "nonpayable",
      "type": "constructor"
    },
    {
      "anonymous": false,
      "inputs": [
        {
          "indexed": false,
          "internalType": "uint256",
          "name": "source",
          "type": "uint256"
        },
        {
          "indexed": false,
          "internalType": "uint256",
          "name": "destination",
          "type": "uint256"
        },
        {
          "indexed": false,
          "internalType": "string",
          "name": "data",
          "type": "string"
        }
      ],
      "name": "CallbackRequestAcknowledged",
      "type": "event"
    },
    {
      "anonymous": false,
      "inputs": [
        {
          "indexed": false,
          "internalType": "uint256",
          "name": "source",
          "type": "uint256"
        },
        {
          "indexed": false,
          "internalType": "uint256",
          "name": "destination",
          "type": "uint256"
        },
        {
          "indexed": false,
          "internalType": "string",
          "name": "data",
          "type": "string"
        },
        {
          "indexed": false,
          "internalType": "address",
          "name": "callerAddress",
          "type": "address"
        }
      ],
      "name": "CallbackRequestInitiated",
      "type": "event"
    },
    {
      "inputs": [],
      "name": "owner",
      "outputs": [
        {
          "internalType": "address",
          "name": "",
          "type": "address"
        }
      ],
      "stateMutability": "view",
      "type": "function",
      "constant": true
    },
    {
      "inputs": [
        {
          "internalType": "uint256",
          "name": "source",
          "type": "uint256"
        },
        {
          "internalType": "uint256",
          "name": "destination",
          "type": "uint256"
        },
        {
          "internalType": "string",
          "name": "data",
          "type": "string"
        },
        {
          "internalType": "address",
          "name": "callerAddress",
          "type": "address"
        }
      ],
      "name": "requestCall",
      "outputs": [],
      "stateMutability": "nonpayable",
      "type": "function"
    },
    {
      "inputs": [
        {
          "internalType": "uint256",
          "name": "source",
          "type": "uint256"
        },
        {
          "internalType": "uint256",
          "name": "destination",
          "type": "uint256"
        },
        {
          "internalType": "string",
          "name": "data",
          "type": "string"
        }
      ],
      "name": "responseCall",
      "outputs": [],
      "stateMutability": "nonpayable",
      "type": "function"
    }
  ],
  "bytecode": "0x608060405234801561001057600080fd5b50336000806101000a81548173ffffffffffffffffffffffffffffffffffffffff021916908373ffffffffffffffffffffffffffffffffffffffff1602179055506105a4806100606000396000f3fe608060405234801561001057600080fd5b50600436106100415760003560e01c8063311100c0146100465780638da5cb5b14610062578063e392316814610080575b600080fd5b610060600480360381019061005b91906102d3565b61009c565b005b61006a6100dc565b6040516100779190610383565b60405180910390f35b61009a600480360381019061009591906103ca565b610100565b005b7fc9a89ee4db3f6824277ada3139998aacf2f0478a1e21395e00086688e470ca678383836040516100cf939291906104e4565b60405180910390a1505050565b60008054906101000a900473ffffffffffffffffffffffffffffffffffffffff1681565b7fdd40430bb4122f8fd5decb91ae1d4474d2f41f88cb4ea9d6ecbd5cff997b203a848484846040516101359493929190610522565b60405180910390a150505050565b6000604051905090565b600080fd5b600080fd5b6000819050919050565b61016a81610157565b811461017557600080fd5b50565b60008135905061018781610161565b92915050565b600080fd5b600080fd5b6000601f19601f8301169050919050565b7f4e487b7100000000000000000000000000000000000000000000000000000000600052604160045260246000fd5b6101e082610197565b810181811067ffffffffffffffff821117156101ff576101fe6101a8565b5b80604052505050565b6000610212610143565b905061021e82826101d7565b919050565b600067ffffffffffffffff82111561023e5761023d6101a8565b5b61024782610197565b9050602081019050919050565b82818337600083830152505050565b600061027661027184610223565b610208565b90508281526020810184848401111561029257610291610192565b5b61029d848285610254565b509392505050565b600082601f8301126102ba576102b961018d565b5b81356102ca848260208601610263565b91505092915050565b6000806000606084860312156102ec576102eb61014d565b5b60006102fa86828701610178565b935050602061030b86828701610178565b925050604084013567ffffffffffffffff81111561032c5761032b610152565b5b610338868287016102a5565b9150509250925092565b600073ffffffffffffffffffffffffffffffffffffffff82169050919050565b600061036d82610342565b9050919050565b61037d81610362565b82525050565b60006020820190506103986000830184610374565b92915050565b6103a781610362565b81146103b257600080fd5b50565b6000813590506103c48161039e565b92915050565b600080600080608085870312156103e4576103e361014d565b5b60006103f287828801610178565b945050602061040387828801610178565b935050604085013567ffffffffffffffff81111561042457610423610152565b5b610430878288016102a5565b9250506060610441878288016103b5565b91505092959194509250565b61045681610157565b82525050565b600081519050919050565b600082825260208201905092915050565b60005b8381101561049657808201518184015260208101905061047b565b838111156104a5576000848401525b50505050565b60006104b68261045c565b6104c08185610467565b93506104d0818560208601610478565b6104d981610197565b840191505092915050565b60006060820190506104f9600083018661044d565b610506602083018561044d565b818103604083015261051881846104ab565b9050949350505050565b6000608082019050610537600083018761044d565b610544602083018661044d565b818103604083015261055681856104ab565b90506105656060830184610374565b9594505050505056fea2646970667358221220eff0d05cb644dc08159e30e46811981a419b54ff3e0bdd0bea764ea383a1a3cf64736f6c634300080b0033",
  "immutableReferences": {},
  "source": "// SPDX-License-Identifier: GPL-3.0\npragma solidity >=0.4.0 <0.9.0;\n\ncontract MedicalOracle {\n    address public owner;\n\n    struct Call {\n        string source;\n        string destination;\n        string data;\n    }\n\n    struct Output {\n        bool status;\n        string returnedData;\n    }\n\n    event CallbackRequestInitiated(\n        uint256 source,\n        uint256 destination,\n        string data,\n        address callerAddress\n    );\n    event CallbackRequestAcknowledged(\n        uint256 source,\n        uint256 destination,\n        string data\n    );\n\n    constructor() {\n        owner = msg.sender;\n    }\n\n    function requestCall(\n        uint256 source,\n        uint256 destination,\n        string memory data,\n        address callerAddress\n    ) public {\n        emit CallbackRequestInitiated(source, destination, data, callerAddress);\n    }\n\n    function responseCall(\n        uint256 source,\n        uint256 destination,\n        string memory data\n    ) public {\n        emit CallbackRequestAcknowledged(source, destination, data);\n    }\n}\n",
  "sourcePath": "/Users/achinthaikiriwatte/Desktop/MSC/Semester IV/Research/Prototype Development/router/contracts/MedicalRouter.sol",
  "compiler": {
    "name": "solc",
    "version": "0.8.11+commit.d7f03943.Emscripten.clang"
  },
  "schemaVersion": "3.4.5",
  "updatedAt": "2022-04-10T03:18:45.614Z",
  "networkType": "ethereum",
  "devdoc": {
    "kind": "dev",
    "methods": {},
    "version": 1
  },
  "userdoc": {
    "kind": "user",
    "methods": {},
    "version": 1
  }
}