{
  "contractName": "MedicalOracle",
  "abi": [
    {
      "inputs": [],
      "stateMutability": "nonpayable",
      "type": "constructor"
    },
    {
      "anonymous": false,
      "inputs": [
        {
          "indexed": true,
          "internalType": "address",
          "name": "source",
          "type": "address"
        },
        {
          "indexed": false,
          "internalType": "uint256",
          "name": "destination",
          "type": "uint256"
        },
        {
          "indexed": false,
          "internalType": "string",
          "name": "data",
          "type": "string"
        },
        {
          "indexed": false,
          "internalType": "address",
          "name": "callerAddress",
          "type": "address"
        }
      ],
      "name": "CallbackRequestAcknowledged",
      "type": "event"
    },
    {
      "anonymous": false,
      "inputs": [
        {
          "indexed": false,
          "internalType": "address",
          "name": "source",
          "type": "address"
        },
        {
          "indexed": false,
          "internalType": "uint256",
          "name": "destination",
          "type": "uint256"
        },
        {
          "indexed": false,
          "internalType": "string",
          "name": "data",
          "type": "string"
        },
        {
          "indexed": false,
          "internalType": "address",
          "name": "callerAddress",
          "type": "address"
        }
      ],
      "name": "CallbackRequestInitiated",
      "type": "event"
    },
    {
      "inputs": [],
      "name": "owner",
      "outputs": [
        {
          "internalType": "address",
          "name": "",
          "type": "address"
        }
      ],
      "stateMutability": "view",
      "type": "function",
      "constant": true
    },
    {
      "inputs": [
        {
          "internalType": "address",
          "name": "source",
          "type": "address"
        },
        {
          "internalType": "uint256",
          "name": "destination",
          "type": "uint256"
        },
        {
          "internalType": "string",
          "name": "data",
          "type": "string"
        },
        {
          "internalType": "address",
          "name": "callerAddress",
          "type": "address"
        }
      ],
      "name": "requestCall",
      "outputs": [],
      "stateMutability": "nonpayable",
      "type": "function"
    },
    {
      "inputs": [
        {
          "internalType": "address",
          "name": "source",
          "type": "address"
        },
        {
          "internalType": "uint256",
          "name": "destination",
          "type": "uint256"
        },
        {
          "internalType": "string",
          "name": "data",
          "type": "string"
        },
        {
          "internalType": "address",
          "name": "callerAddress",
          "type": "address"
        }
      ],
      "name": "responseCall",
      "outputs": [],
      "stateMutability": "nonpayable",
      "type": "function"
    }
  ],
  "bytecode": "0x608060405234801561001057600080fd5b50336000806101000a81548173ffffffffffffffffffffffffffffffffffffffff021916908373ffffffffffffffffffffffffffffffffffffffff16021790555061054d806100606000396000f3fe608060405234801561001057600080fd5b50600436106100415760003560e01c80638da5cb5b146100465780639b776a8e14610064578063a393334d14610080575b600080fd5b61004e61009c565b60405161005b919061019c565b60405180910390f35b61007e60048036038101906100799190610373565b6100c0565b005b61009a60048036038101906100959190610373565b610103565b005b60008054906101000a900473ffffffffffffffffffffffffffffffffffffffff1681565b7f71c29f7991654636033bda96f1903af23aff2eb0a1fd86d22c917aa620298937848484846040516100f5949392919061048d565b60405180910390a150505050565b8373ffffffffffffffffffffffffffffffffffffffff167fb32b42ab1d5fbfed8eb50dd29ddf8e6cc0e661a6b04ba78399675f1dbd9dd95a84848460405161014d939291906104d9565b60405180910390a250505050565b600073ffffffffffffffffffffffffffffffffffffffff82169050919050565b60006101868261015b565b9050919050565b6101968161017b565b82525050565b60006020820190506101b1600083018461018d565b92915050565b6000604051905090565b600080fd5b600080fd5b6101d48161017b565b81146101df57600080fd5b50565b6000813590506101f1816101cb565b92915050565b6000819050919050565b61020a816101f7565b811461021557600080fd5b50565b60008135905061022781610201565b92915050565b600080fd5b600080fd5b6000601f19601f8301169050919050565b7f4e487b7100000000000000000000000000000000000000000000000000000000600052604160045260246000fd5b61028082610237565b810181811067ffffffffffffffff8211171561029f5761029e610248565b5b80604052505050565b60006102b26101b7565b90506102be8282610277565b919050565b600067ffffffffffffffff8211156102de576102dd610248565b5b6102e782610237565b9050602081019050919050565b82818337600083830152505050565b6000610316610311846102c3565b6102a8565b90508281526020810184848401111561033257610331610232565b5b61033d8482856102f4565b509392505050565b600082601f83011261035a5761035961022d565b5b813561036a848260208601610303565b91505092915050565b6000806000806080858703121561038d5761038c6101c1565b5b600061039b878288016101e2565b94505060206103ac87828801610218565b935050604085013567ffffffffffffffff8111156103cd576103cc6101c6565b5b6103d987828801610345565b92505060606103ea878288016101e2565b91505092959194509250565b6103ff816101f7565b82525050565b600081519050919050565b600082825260208201905092915050565b60005b8381101561043f578082015181840152602081019050610424565b8381111561044e576000848401525b50505050565b600061045f82610405565b6104698185610410565b9350610479818560208601610421565b61048281610237565b840191505092915050565b60006080820190506104a2600083018761018d565b6104af60208301866103f6565b81810360408301526104c18185610454565b90506104d0606083018461018d565b95945050505050565b60006060820190506104ee60008301866103f6565b81810360208301526105008185610454565b905061050f604083018461018d565b94935050505056fea264697066735822122070b690f2810436df40c846204d5b9f19accacde6431edcee316345708d969dac64736f6c634300080b0033",
  "immutableReferences": {},
  "source": "// SPDX-License-Identifier: GPL-3.0\npragma solidity >=0.4.0 <0.9.0;\n\ncontract MedicalOracle {\n    address public owner;\n\n    struct Call {\n        string source;\n        string destination;\n        string data;\n    }\n\n    struct Output {\n        bool status;\n        string returnedData;\n    }\n\n    event CallbackRequestInitiated(\n        address source,\n        uint256 destination,\n        string data,\n        address callerAddress\n    );\n    event CallbackRequestAcknowledged(\n        address indexed source,\n        uint256 destination,\n        string data,\n        address callerAddress\n    );\n\n    constructor() {\n        owner = msg.sender;\n    }\n\n    function requestCall(\n        address source,\n        uint256 destination,\n        string memory data,\n        address callerAddress\n    ) public {\n        emit CallbackRequestInitiated(source, destination, data, callerAddress);\n    }\n\n    function responseCall(\n        address source,\n        uint256 destination,\n        string memory data,\n        address callerAddress\n    ) public {\n        emit CallbackRequestAcknowledged(\n            source,\n            destination,\n            data,\n            callerAddress\n        );\n    }\n}\n",
  "sourcePath": "/Users/achinthaikiriwatte/Desktop/MSC/Semester IV/Research/Prototype Development/router/contracts/MedicalRouter.sol",
  "compiler": {
    "name": "solc",
    "version": "0.8.11+commit.d7f03943.Emscripten.clang"
  },
  "schemaVersion": "3.4.5",
  "updatedAt": "2022-05-08T01:26:48.041Z",
  "networkType": "ethereum",
  "devdoc": {
    "kind": "dev",
    "methods": {},
    "version": 1
  },
  "userdoc": {
    "kind": "user",
    "methods": {},
    "version": 1
  }
}