{
  "contractName": "MedicalOracle",
  "abi": [
    {
      "inputs": [],
      "stateMutability": "nonpayable",
      "type": "constructor"
    },
    {
      "anonymous": false,
      "inputs": [
        {
          "indexed": false,
          "internalType": "uint256",
          "name": "source",
          "type": "uint256"
        },
        {
          "indexed": false,
          "internalType": "uint256",
          "name": "destination",
          "type": "uint256"
        },
        {
          "indexed": false,
          "internalType": "uint256",
          "name": "data",
          "type": "uint256"
        }
      ],
      "name": "CallbackRequestAcknowledged",
      "type": "event"
    },
    {
      "anonymous": false,
      "inputs": [
        {
          "indexed": false,
          "internalType": "uint256",
          "name": "source",
          "type": "uint256"
        },
        {
          "indexed": false,
          "internalType": "uint256",
          "name": "destination",
          "type": "uint256"
        },
        {
          "indexed": false,
          "internalType": "uint256",
          "name": "data",
          "type": "uint256"
        }
      ],
      "name": "CallbackRequestInitiated",
      "type": "event"
    },
    {
      "inputs": [],
      "name": "owner",
      "outputs": [
        {
          "internalType": "address",
          "name": "",
          "type": "address"
        }
      ],
      "stateMutability": "view",
      "type": "function",
      "constant": true
    },
    {
      "inputs": [
        {
          "internalType": "uint256",
          "name": "source",
          "type": "uint256"
        },
        {
          "internalType": "uint256",
          "name": "destination",
          "type": "uint256"
        },
        {
          "internalType": "uint256",
          "name": "data",
          "type": "uint256"
        }
      ],
      "name": "requestCall",
      "outputs": [],
      "stateMutability": "nonpayable",
      "type": "function"
    },
    {
      "inputs": [
        {
          "internalType": "uint256",
          "name": "source",
          "type": "uint256"
        },
        {
          "internalType": "uint256",
          "name": "destination",
          "type": "uint256"
        },
        {
          "internalType": "uint256",
          "name": "data",
          "type": "uint256"
        }
      ],
      "name": "responseCall",
      "outputs": [],
      "stateMutability": "nonpayable",
      "type": "function"
    }
  ],
  "bytecode": "0x608060405234801561001057600080fd5b50336000806101000a81548173ffffffffffffffffffffffffffffffffffffffff021916908373ffffffffffffffffffffffffffffffffffffffff1602179055506102a6806100606000396000f3fe608060405234801561001057600080fd5b50600436106100415760003560e01c80638da5cb5b14610046578063a0cea73314610064578063bb6200f314610080575b600080fd5b61004e61009c565b60405161005b9190610181565b60405180910390f35b61007e600480360381019061007991906101d7565b6100c0565b005b61009a600480360381019061009591906101d7565b610100565b005b60008054906101000a900473ffffffffffffffffffffffffffffffffffffffff1681565b7f91ecfabc798766c3aaf8fd14db13059c628f9bd99b7d8d05d67fd7d0555b404f8383836040516100f393929190610239565b60405180910390a1505050565b7fc0f2aeb5aeab7bc189de626e74ea27a490969fc80822bd8d45d4602e1189770883838360405161013393929190610239565b60405180910390a1505050565b600073ffffffffffffffffffffffffffffffffffffffff82169050919050565b600061016b82610140565b9050919050565b61017b81610160565b82525050565b60006020820190506101966000830184610172565b92915050565b600080fd5b6000819050919050565b6101b4816101a1565b81146101bf57600080fd5b50565b6000813590506101d1816101ab565b92915050565b6000806000606084860312156101f0576101ef61019c565b5b60006101fe868287016101c2565b935050602061020f868287016101c2565b9250506040610220868287016101c2565b9150509250925092565b610233816101a1565b82525050565b600060608201905061024e600083018661022a565b61025b602083018561022a565b610268604083018461022a565b94935050505056fea2646970667358221220b960c437cda88064933ccf054dd7056bfe9d655b5726165e9580aa970e4e1e4864736f6c634300080b0033",
  "immutableReferences": {},
  "source": "// SPDX-License-Identifier: GPL-3.0\npragma solidity >=0.4.0 <0.9.0;\n\ncontract MedicalOracle {\n    address public owner;\n\n    struct Call {\n        string source;\n        string destination;\n        string data;\n    }\n\n    struct Output {\n        bool status;\n        string returnedData;\n    }\n\n    event CallbackRequestInitiated(\n        uint256 source,\n        uint256 destination,\n        uint256 data\n    );\n    event CallbackRequestAcknowledged(\n        uint256 source,\n        uint256 destination,\n        uint256 data\n    );\n\n    constructor() {\n        owner = msg.sender;\n    }\n\n    function requestCall(\n        uint256 source,\n        uint256 destination,\n        uint256 data\n    ) public {\n        emit CallbackRequestInitiated(source, destination, data);\n    }\n\n    function responseCall(\n        uint256 source,\n        uint256 destination,\n        uint256 data\n    ) public {\n        emit CallbackRequestAcknowledged(source, destination, data);\n    }\n}\n",
  "sourcePath": "/Users/achinthaikiriwatte/Desktop/MSC/Semester IV/Research/Prototype Development/router/contracts/MedicalRouter.sol",
  "compiler": {
    "name": "solc",
    "version": "0.8.11+commit.d7f03943.Emscripten.clang"
  },
  "schemaVersion": "3.4.5",
  "updatedAt": "2022-04-09T10:33:11.634Z",
  "networkType": "ethereum",
  "devdoc": {
    "kind": "dev",
    "methods": {},
    "version": 1
  },
  "userdoc": {
    "kind": "user",
    "methods": {},
    "version": 1
  }
}