{
  "contractName": "Router",
  "abi": [
    {
      "inputs": [
        {
          "internalType": "uint256",
          "name": "",
          "type": "uint256"
        }
      ],
      "name": "routingAddresses",
      "outputs": [
        {
          "internalType": "string",
          "name": "blokchainName",
          "type": "string"
        },
        {
          "internalType": "uint256",
          "name": "priority",
          "type": "uint256"
        },
        {
          "internalType": "address",
          "name": "blockchainAddress",
          "type": "address"
        },
        {
          "internalType": "string",
          "name": "timestamp",
          "type": "string"
        },
        {
          "internalType": "string",
          "name": "applicationInterface",
          "type": "string"
        }
      ],
      "stateMutability": "view",
      "type": "function",
      "constant": true
    },
    {
      "inputs": [
        {
          "internalType": "uint256",
          "name": "node",
          "type": "uint256"
        },
        {
          "internalType": "string",
          "name": "blockchainName",
          "type": "string"
        },
        {
          "internalType": "uint256",
          "name": "priorirty",
          "type": "uint256"
        },
        {
          "internalType": "address",
          "name": "blockchainAddress",
          "type": "address"
        },
        {
          "internalType": "string",
          "name": "timestamp",
          "type": "string"
        },
        {
          "internalType": "string",
          "name": "applicationInterface",
          "type": "string"
        }
      ],
      "name": "setRouter",
      "outputs": [],
      "stateMutability": "nonpayable",
      "type": "function"
    },
    {
      "inputs": [
        {
          "internalType": "uint256",
          "name": "id",
          "type": "uint256"
        }
      ],
      "name": "getRouterNode",
      "outputs": [
        {
          "components": [
            {
              "internalType": "string",
              "name": "blokchainName",
              "type": "string"
            },
            {
              "internalType": "uint256",
              "name": "priority",
              "type": "uint256"
            },
            {
              "internalType": "address",
              "name": "blockchainAddress",
              "type": "address"
            },
            {
              "internalType": "string",
              "name": "timestamp",
              "type": "string"
            },
            {
              "internalType": "string",
              "name": "applicationInterface",
              "type": "string"
            }
          ],
          "internalType": "struct Router.RouterInformation",
          "name": "",
          "type": "tuple"
        }
      ],
      "stateMutability": "view",
      "type": "function",
      "constant": true
    },
    {
      "inputs": [],
      "name": "getAllNodes",
      "outputs": [
        {
          "components": [
            {
              "internalType": "string",
              "name": "blokchainName",
              "type": "string"
            },
            {
              "internalType": "uint256",
              "name": "priority",
              "type": "uint256"
            },
            {
              "internalType": "address",
              "name": "blockchainAddress",
              "type": "address"
            },
            {
              "internalType": "string",
              "name": "timestamp",
              "type": "string"
            },
            {
              "internalType": "string",
              "name": "applicationInterface",
              "type": "string"
            }
          ],
          "internalType": "struct Router.RouterInformation[]",
          "name": "",
          "type": "tuple[]"
        }
      ],
      "stateMutability": "view",
      "type": "function",
      "constant": true
    }
  ],
  "bytecode": "0x608060405234801561001057600080fd5b5061125f806100206000396000f3fe608060405234801561001057600080fd5b506004361061004c5760003560e01c80638a2839d614610051578063930186f21461006d578063970b9d1b146100a1578063a1174e7d146100d1575b600080fd5b61006b60048036038101906100669190610c89565b6100ef565b005b61008760048036038101906100829190610d70565b61024e565b604051610098959493929190610e43565b60405180910390f35b6100bb60048036038101906100b69190610d70565b61043c565b6040516100c89190610f97565b60405180910390f35b6100d961067e565b6040516100e691906110ff565b60405180910390f35b6040518060a001604052808781526020018681526020018573ffffffffffffffffffffffffffffffffffffffff16815260200184848080601f016020809104026020016040519081016040528093929190818152602001838380828437600081840152601f19601f82011690508083019250505050505050815260200182815250600080898152602001908152602001600020600082015181600001908051906020019061019e929190610953565b506020820151816001015560408201518160020160006101000a81548173ffffffffffffffffffffffffffffffffffffffff021916908373ffffffffffffffffffffffffffffffffffffffff160217905550606082015181600301908051906020019061020c929190610953565b506080820151816004019080519060200190610229929190610953565b509050506001600081548092919061024090611150565b919050555050505050505050565b6000602052806000526040600020600091509050806000018054610271906111c8565b80601f016020809104026020016040519081016040528092919081815260200182805461029d906111c8565b80156102ea5780601f106102bf576101008083540402835291602001916102ea565b820191906000526020600020905b8154815290600101906020018083116102cd57829003601f168201915b5050505050908060010154908060020160009054906101000a900473ffffffffffffffffffffffffffffffffffffffff169080600301805461032b906111c8565b80601f0160208091040260200160405190810160405280929190818152602001828054610357906111c8565b80156103a45780601f10610379576101008083540402835291602001916103a4565b820191906000526020600020905b81548152906001019060200180831161038757829003601f168201915b5050505050908060040180546103b9906111c8565b80601f01602080910402602001604051908101604052809291908181526020018280546103e5906111c8565b80156104325780601f1061040757610100808354040283529160200191610432565b820191906000526020600020905b81548152906001019060200180831161041557829003601f168201915b5050505050905085565b6104446109d9565b6000808381526020019081526020016000206040518060a0016040529081600082018054610471906111c8565b80601f016020809104026020016040519081016040528092919081815260200182805461049d906111c8565b80156104ea5780601f106104bf576101008083540402835291602001916104ea565b820191906000526020600020905b8154815290600101906020018083116104cd57829003601f168201915b50505050508152602001600182015481526020016002820160009054906101000a900473ffffffffffffffffffffffffffffffffffffffff1673ffffffffffffffffffffffffffffffffffffffff1673ffffffffffffffffffffffffffffffffffffffff168152602001600382018054610563906111c8565b80601f016020809104026020016040519081016040528092919081815260200182805461058f906111c8565b80156105dc5780601f106105b1576101008083540402835291602001916105dc565b820191906000526020600020905b8154815290600101906020018083116105bf57829003601f168201915b505050505081526020016004820180546105f5906111c8565b80601f0160208091040260200160405190810160405280929190818152602001828054610621906111c8565b801561066e5780601f106106435761010080835404028352916020019161066e565b820191906000526020600020905b81548152906001019060200180831161065157829003601f168201915b5050505050815250509050919050565b6060600060015467ffffffffffffffff81111561069e5761069d610aa0565b5b6040519080825280602002602001820160405280156106d757816020015b6106c46109d9565b8152602001906001900390816106bc5790505b50905060005b60015481101561094b576000808281526020019081526020016000206040518060a0016040529081600082018054610714906111c8565b80601f0160208091040260200160405190810160405280929190818152602001828054610740906111c8565b801561078d5780601f106107625761010080835404028352916020019161078d565b820191906000526020600020905b81548152906001019060200180831161077057829003601f168201915b50505050508152602001600182015481526020016002820160009054906101000a900473ffffffffffffffffffffffffffffffffffffffff1673ffffffffffffffffffffffffffffffffffffffff1673ffffffffffffffffffffffffffffffffffffffff168152602001600382018054610806906111c8565b80601f0160208091040260200160405190810160405280929190818152602001828054610832906111c8565b801561087f5780601f106108545761010080835404028352916020019161087f565b820191906000526020600020905b81548152906001019060200180831161086257829003601f168201915b50505050508152602001600482018054610898906111c8565b80601f01602080910402602001604051908101604052809291908181526020018280546108c4906111c8565b80156109115780601f106108e657610100808354040283529160200191610911565b820191906000526020600020905b8154815290600101906020018083116108f457829003601f168201915b50505050508152505082828151811061092d5761092c6111fa565b5b6020026020010181905250808061094390611150565b9150506106dd565b508091505090565b82805461095f906111c8565b90600052602060002090601f01602090048101928261098157600085556109c8565b82601f1061099a57805160ff19168380011785556109c8565b828001600101855582156109c8579182015b828111156109c75782518255916020019190600101906109ac565b5b5090506109d59190610a1e565b5090565b6040518060a001604052806060815260200160008152602001600073ffffffffffffffffffffffffffffffffffffffff16815260200160608152602001606081525090565b5b80821115610a37576000816000905550600101610a1f565b5090565b6000604051905090565b600080fd5b600080fd5b6000819050919050565b610a6281610a4f565b8114610a6d57600080fd5b50565b600081359050610a7f81610a59565b92915050565b600080fd5b600080fd5b6000601f19601f8301169050919050565b7f4e487b7100000000000000000000000000000000000000000000000000000000600052604160045260246000fd5b610ad882610a8f565b810181811067ffffffffffffffff82111715610af757610af6610aa0565b5b80604052505050565b6000610b0a610a3b565b9050610b168282610acf565b919050565b600067ffffffffffffffff821115610b3657610b35610aa0565b5b610b3f82610a8f565b9050602081019050919050565b82818337600083830152505050565b6000610b6e610b6984610b1b565b610b00565b905082815260208101848484011115610b8a57610b89610a8a565b5b610b95848285610b4c565b509392505050565b600082601f830112610bb257610bb1610a85565b5b8135610bc2848260208601610b5b565b91505092915050565b600073ffffffffffffffffffffffffffffffffffffffff82169050919050565b6000610bf682610bcb565b9050919050565b610c0681610beb565b8114610c1157600080fd5b50565b600081359050610c2381610bfd565b92915050565b600080fd5b600080fd5b60008083601f840112610c4957610c48610a85565b5b8235905067ffffffffffffffff811115610c6657610c65610c29565b5b602083019150836001820283011115610c8257610c81610c2e565b5b9250929050565b600080600080600080600060c0888a031215610ca857610ca7610a45565b5b6000610cb68a828b01610a70565b975050602088013567ffffffffffffffff811115610cd757610cd6610a4a565b5b610ce38a828b01610b9d565b9650506040610cf48a828b01610a70565b9550506060610d058a828b01610c14565b945050608088013567ffffffffffffffff811115610d2657610d25610a4a565b5b610d328a828b01610c33565b935093505060a088013567ffffffffffffffff811115610d5557610d54610a4a565b5b610d618a828b01610b9d565b91505092959891949750929550565b600060208284031215610d8657610d85610a45565b5b6000610d9484828501610a70565b91505092915050565b600081519050919050565b600082825260208201905092915050565b60005b83811015610dd7578082015181840152602081019050610dbc565b83811115610de6576000848401525b50505050565b6000610df782610d9d565b610e018185610da8565b9350610e11818560208601610db9565b610e1a81610a8f565b840191505092915050565b610e2e81610a4f565b82525050565b610e3d81610beb565b82525050565b600060a0820190508181036000830152610e5d8188610dec565b9050610e6c6020830187610e25565b610e796040830186610e34565b8181036060830152610e8b8185610dec565b90508181036080830152610e9f8184610dec565b90509695505050505050565b600082825260208201905092915050565b6000610ec782610d9d565b610ed18185610eab565b9350610ee1818560208601610db9565b610eea81610a8f565b840191505092915050565b610efe81610a4f565b82525050565b610f0d81610beb565b82525050565b600060a0830160008301518482036000860152610f308282610ebc565b9150506020830151610f456020860182610ef5565b506040830151610f586040860182610f04565b5060608301518482036060860152610f708282610ebc565b91505060808301518482036080860152610f8a8282610ebc565b9150508091505092915050565b60006020820190508181036000830152610fb18184610f13565b905092915050565b600081519050919050565b600082825260208201905092915050565b6000819050602082019050919050565b600060a08301600083015184820360008601526110028282610ebc565b91505060208301516110176020860182610ef5565b50604083015161102a6040860182610f04565b50606083015184820360608601526110428282610ebc565b9150506080830151848203608086015261105c8282610ebc565b9150508091505092915050565b60006110758383610fe5565b905092915050565b6000602082019050919050565b600061109582610fb9565b61109f8185610fc4565b9350836020820285016110b185610fd5565b8060005b858110156110ed57848403895281516110ce8582611069565b94506110d98361107d565b925060208a019950506001810190506110b5565b50829750879550505050505092915050565b60006020820190508181036000830152611119818461108a565b905092915050565b7f4e487b7100000000000000000000000000000000000000000000000000000000600052601160045260246000fd5b600061115b82610a4f565b91507fffffffffffffffffffffffffffffffffffffffffffffffffffffffffffffffff82141561118e5761118d611121565b5b600182019050919050565b7f4e487b7100000000000000000000000000000000000000000000000000000000600052602260045260246000fd5b600060028204905060018216806111e057607f821691505b602082108114156111f4576111f3611199565b5b50919050565b7f4e487b7100000000000000000000000000000000000000000000000000000000600052603260045260246000fdfea264697066735822122081de019b58348dbb0d14225ed9bac74cf9f6379e169bd06c6aa646b7434ccead64736f6c634300080b0033",
  "immutableReferences": {},
  "source": "// SPDX-License-Identifier: GPL-3.0\npragma solidity >=0.4.0 <0.9.0;\n\ncontract Router {\n    struct RouterInformation {\n        string blokchainName;\n        uint256 priority;\n        address blockchainAddress;\n        string timestamp;\n        string applicationInterface;\n    }\n\n    mapping(uint256 => RouterInformation) public routingAddresses;\n    uint256 routerAddressCount;\n\n    function setRouter(\n        uint256 node,\n        string memory blockchainName,\n        uint256 priorirty,\n        address blockchainAddress,\n        string calldata timestamp,\n        string memory applicationInterface\n    ) public {\n        routingAddresses[node] = RouterInformation(\n            blockchainName,\n            priorirty,\n            blockchainAddress,\n            timestamp,\n            applicationInterface\n        );\n        routerAddressCount++;\n    }\n\n    function getRouterNode(uint256 id)\n        public\n        view\n        returns (RouterInformation memory)\n    {\n        return routingAddresses[id];\n    }\n\n    function getAllNodes() public view returns (RouterInformation[] memory) {\n        RouterInformation[] memory ret = new RouterInformation[](\n            routerAddressCount\n        );\n        for (uint256 i = 0; i < routerAddressCount; i++) {\n            ret[i] = routingAddresses[i];\n        }\n        return ret;\n    }\n}\n",
  "sourcePath": "/Users/achinthaikiriwatte/Desktop/MSC/Semester IV/Research/Prototype Development/router/contracts/Router.sol",
  "compiler": {
    "name": "solc",
    "version": "0.8.11+commit.d7f03943.Emscripten.clang"
  },
  "schemaVersion": "3.4.5",
  "updatedAt": "2022-04-30T18:21:23.863Z",
  "networkType": "ethereum",
  "devdoc": {
    "kind": "dev",
    "methods": {},
    "version": 1
  },
  "userdoc": {
    "kind": "user",
    "methods": {},
    "version": 1
  }
}