{
  "contractName": "Router",
  "abi": [
    {
      "inputs": [
        {
          "internalType": "uint256",
          "name": "",
          "type": "uint256"
        }
      ],
      "name": "routingAddresses",
      "outputs": [
        {
          "internalType": "string",
          "name": "blokchainName",
          "type": "string"
        },
        {
          "internalType": "uint256",
          "name": "priority",
          "type": "uint256"
        },
        {
          "internalType": "address",
          "name": "blockchainAddress",
          "type": "address"
        },
        {
          "internalType": "string",
          "name": "timestamp",
          "type": "string"
        }
      ],
      "stateMutability": "view",
      "type": "function",
      "constant": true
    },
    {
      "inputs": [
        {
          "internalType": "uint256",
          "name": "node",
          "type": "uint256"
        },
        {
          "internalType": "string",
          "name": "blockchainName",
          "type": "string"
        },
        {
          "internalType": "uint256",
          "name": "priorirty",
          "type": "uint256"
        },
        {
          "internalType": "address",
          "name": "blockchainAddress",
          "type": "address"
        },
        {
          "internalType": "string",
          "name": "timestamp",
          "type": "string"
        }
      ],
      "name": "setRouter",
      "outputs": [],
      "stateMutability": "nonpayable",
      "type": "function"
    },
    {
      "inputs": [
        {
          "internalType": "uint256",
          "name": "id",
          "type": "uint256"
        }
      ],
      "name": "getRouterNode",
      "outputs": [
        {
          "components": [
            {
              "internalType": "string",
              "name": "blokchainName",
              "type": "string"
            },
            {
              "internalType": "uint256",
              "name": "priority",
              "type": "uint256"
            },
            {
              "internalType": "address",
              "name": "blockchainAddress",
              "type": "address"
            },
            {
              "internalType": "string",
              "name": "timestamp",
              "type": "string"
            }
          ],
          "internalType": "struct Router.RouterInformation",
          "name": "",
          "type": "tuple"
        }
      ],
      "stateMutability": "view",
      "type": "function",
      "constant": true
    },
    {
      "inputs": [],
      "name": "getAllNodes",
      "outputs": [
        {
          "components": [
            {
              "internalType": "string",
              "name": "blokchainName",
              "type": "string"
            },
            {
              "internalType": "uint256",
              "name": "priority",
              "type": "uint256"
            },
            {
              "internalType": "address",
              "name": "blockchainAddress",
              "type": "address"
            },
            {
              "internalType": "string",
              "name": "timestamp",
              "type": "string"
            }
          ],
          "internalType": "struct Router.RouterInformation[]",
          "name": "",
          "type": "tuple[]"
        }
      ],
      "stateMutability": "view",
      "type": "function",
      "constant": true
    }
  ],
  "bytecode": "0x608060405234801561001057600080fd5b50611007806100206000396000f3fe608060405234801561001057600080fd5b506004361061004c5760003560e01c80637554af9914610051578063930186f21461006d578063970b9d1b146100a0578063a1174e7d146100d0575b600080fd5b61006b60048036038101906100669190610aab565b6100ee565b005b61008760048036038101906100829190610b61565b610229565b6040516100979493929190610c34565b60405180910390f35b6100ba60048036038101906100b59190610b61565b610389565b6040516100c79190610d59565b60405180910390f35b6100d8610539565b6040516100e59190610ea7565b60405180910390f35b60405180608001604052808681526020018581526020018473ffffffffffffffffffffffffffffffffffffffff16815260200183838080601f016020809104026020016040519081016040528093929190818152602001838380828437600081840152601f19601f82011690508083019250505050505050815250600080888152602001908152602001600020600082015181600001908051906020019061019792919061077c565b506020820151816001015560408201518160020160006101000a81548173ffffffffffffffffffffffffffffffffffffffff021916908373ffffffffffffffffffffffffffffffffffffffff160217905550606082015181600301908051906020019061020592919061077c565b509050506001600081548092919061021c90610ef8565b9190505550505050505050565b600060205280600052604060002060009150905080600001805461024c90610f70565b80601f016020809104026020016040519081016040528092919081815260200182805461027890610f70565b80156102c55780601f1061029a576101008083540402835291602001916102c5565b820191906000526020600020905b8154815290600101906020018083116102a857829003601f168201915b5050505050908060010154908060020160009054906101000a900473ffffffffffffffffffffffffffffffffffffffff169080600301805461030690610f70565b80601f016020809104026020016040519081016040528092919081815260200182805461033290610f70565b801561037f5780601f106103545761010080835404028352916020019161037f565b820191906000526020600020905b81548152906001019060200180831161036257829003601f168201915b5050505050905084565b610391610802565b6000808381526020019081526020016000206040518060800160405290816000820180546103be90610f70565b80601f01602080910402602001604051908101604052809291908181526020018280546103ea90610f70565b80156104375780601f1061040c57610100808354040283529160200191610437565b820191906000526020600020905b81548152906001019060200180831161041a57829003601f168201915b50505050508152602001600182015481526020016002820160009054906101000a900473ffffffffffffffffffffffffffffffffffffffff1673ffffffffffffffffffffffffffffffffffffffff1673ffffffffffffffffffffffffffffffffffffffff1681526020016003820180546104b090610f70565b80601f01602080910402602001604051908101604052809291908181526020018280546104dc90610f70565b80156105295780601f106104fe57610100808354040283529160200191610529565b820191906000526020600020905b81548152906001019060200180831161050c57829003601f168201915b5050505050815250509050919050565b6060600060015467ffffffffffffffff811115610559576105586108c2565b5b60405190808252806020026020018201604052801561059257816020015b61057f610802565b8152602001906001900390816105775790505b50905060005b600154811015610774576000808281526020019081526020016000206040518060800160405290816000820180546105cf90610f70565b80601f01602080910402602001604051908101604052809291908181526020018280546105fb90610f70565b80156106485780601f1061061d57610100808354040283529160200191610648565b820191906000526020600020905b81548152906001019060200180831161062b57829003601f168201915b50505050508152602001600182015481526020016002820160009054906101000a900473ffffffffffffffffffffffffffffffffffffffff1673ffffffffffffffffffffffffffffffffffffffff1673ffffffffffffffffffffffffffffffffffffffff1681526020016003820180546106c190610f70565b80601f01602080910402602001604051908101604052809291908181526020018280546106ed90610f70565b801561073a5780601f1061070f5761010080835404028352916020019161073a565b820191906000526020600020905b81548152906001019060200180831161071d57829003601f168201915b50505050508152505082828151811061075657610755610fa2565b5b6020026020010181905250808061076c90610ef8565b915050610598565b508091505090565b82805461078890610f70565b90600052602060002090601f0160209004810192826107aa57600085556107f1565b82601f106107c357805160ff19168380011785556107f1565b828001600101855582156107f1579182015b828111156107f05782518255916020019190600101906107d5565b5b5090506107fe9190610840565b5090565b60405180608001604052806060815260200160008152602001600073ffffffffffffffffffffffffffffffffffffffff168152602001606081525090565b5b80821115610859576000816000905550600101610841565b5090565b6000604051905090565b600080fd5b600080fd5b6000819050919050565b61088481610871565b811461088f57600080fd5b50565b6000813590506108a18161087b565b92915050565b600080fd5b600080fd5b6000601f19601f8301169050919050565b7f4e487b7100000000000000000000000000000000000000000000000000000000600052604160045260246000fd5b6108fa826108b1565b810181811067ffffffffffffffff82111715610919576109186108c2565b5b80604052505050565b600061092c61085d565b905061093882826108f1565b919050565b600067ffffffffffffffff821115610958576109576108c2565b5b610961826108b1565b9050602081019050919050565b82818337600083830152505050565b600061099061098b8461093d565b610922565b9050828152602081018484840111156109ac576109ab6108ac565b5b6109b784828561096e565b509392505050565b600082601f8301126109d4576109d36108a7565b5b81356109e484826020860161097d565b91505092915050565b600073ffffffffffffffffffffffffffffffffffffffff82169050919050565b6000610a18826109ed565b9050919050565b610a2881610a0d565b8114610a3357600080fd5b50565b600081359050610a4581610a1f565b92915050565b600080fd5b600080fd5b60008083601f840112610a6b57610a6a6108a7565b5b8235905067ffffffffffffffff811115610a8857610a87610a4b565b5b602083019150836001820283011115610aa457610aa3610a50565b5b9250929050565b60008060008060008060a08789031215610ac857610ac7610867565b5b6000610ad689828a01610892565b965050602087013567ffffffffffffffff811115610af757610af661086c565b5b610b0389828a016109bf565b9550506040610b1489828a01610892565b9450506060610b2589828a01610a36565b935050608087013567ffffffffffffffff811115610b4657610b4561086c565b5b610b5289828a01610a55565b92509250509295509295509295565b600060208284031215610b7757610b76610867565b5b6000610b8584828501610892565b91505092915050565b600081519050919050565b600082825260208201905092915050565b60005b83811015610bc8578082015181840152602081019050610bad565b83811115610bd7576000848401525b50505050565b6000610be882610b8e565b610bf28185610b99565b9350610c02818560208601610baa565b610c0b816108b1565b840191505092915050565b610c1f81610871565b82525050565b610c2e81610a0d565b82525050565b60006080820190508181036000830152610c4e8187610bdd565b9050610c5d6020830186610c16565b610c6a6040830185610c25565b8181036060830152610c7c8184610bdd565b905095945050505050565b600082825260208201905092915050565b6000610ca382610b8e565b610cad8185610c87565b9350610cbd818560208601610baa565b610cc6816108b1565b840191505092915050565b610cda81610871565b82525050565b610ce981610a0d565b82525050565b60006080830160008301518482036000860152610d0c8282610c98565b9150506020830151610d216020860182610cd1565b506040830151610d346040860182610ce0565b5060608301518482036060860152610d4c8282610c98565b9150508091505092915050565b60006020820190508181036000830152610d738184610cef565b905092915050565b600081519050919050565b600082825260208201905092915050565b6000819050602082019050919050565b60006080830160008301518482036000860152610dc48282610c98565b9150506020830151610dd96020860182610cd1565b506040830151610dec6040860182610ce0565b5060608301518482036060860152610e048282610c98565b9150508091505092915050565b6000610e1d8383610da7565b905092915050565b6000602082019050919050565b6000610e3d82610d7b565b610e478185610d86565b935083602082028501610e5985610d97565b8060005b85811015610e955784840389528151610e768582610e11565b9450610e8183610e25565b925060208a01995050600181019050610e5d565b50829750879550505050505092915050565b60006020820190508181036000830152610ec18184610e32565b905092915050565b7f4e487b7100000000000000000000000000000000000000000000000000000000600052601160045260246000fd5b6000610f0382610871565b91507fffffffffffffffffffffffffffffffffffffffffffffffffffffffffffffffff821415610f3657610f35610ec9565b5b600182019050919050565b7f4e487b7100000000000000000000000000000000000000000000000000000000600052602260045260246000fd5b60006002820490506001821680610f8857607f821691505b60208210811415610f9c57610f9b610f41565b5b50919050565b7f4e487b7100000000000000000000000000000000000000000000000000000000600052603260045260246000fdfea26469706673582212201399e366d7bfcbff13912c2e75a9096f5f37e423c322c10db468d0c759751e3b64736f6c634300080b0033",
  "immutableReferences": {},
  "source": "// SPDX-License-Identifier: GPL-3.0\npragma solidity >=0.4.0 <0.9.0;\n\ncontract Router {\n    struct RouterInformation {\n        string blokchainName;\n        uint256 priority;\n        address blockchainAddress;\n        string timestamp;\n    }\n\n    mapping(uint256 => RouterInformation) public routingAddresses;\n    uint256 routerAddressCount;\n\n    function setRouter(\n        uint256 node,\n        string memory blockchainName,\n        uint256 priorirty,\n        address blockchainAddress,\n        string calldata timestamp\n    ) public {\n        routingAddresses[node] = RouterInformation(\n            blockchainName,\n            priorirty,\n            blockchainAddress,\n            timestamp\n        );\n        routerAddressCount++;\n    }\n\n    function getRouterNode(uint256 id)\n        public\n        view\n        returns (RouterInformation memory)\n    {\n        return routingAddresses[id];\n    }\n\n    function getAllNodes() public view returns (RouterInformation[] memory) {\n        RouterInformation[] memory ret = new RouterInformation[](\n            routerAddressCount\n        );\n        for (uint256 i = 0; i < routerAddressCount; i++) {\n            ret[i] = routingAddresses[i];\n        }\n        return ret;\n    }\n}\n",
  "sourcePath": "/Users/achinthaikiriwatte/Desktop/MSC/Semester IV/Research/Prototype Development/router/contracts/Router.sol",
  "compiler": {
    "name": "solc",
    "version": "0.8.11+commit.d7f03943.Emscripten.clang"
  },
  "schemaVersion": "3.4.5",
  "updatedAt": "2022-04-22T03:18:33.588Z",
  "networkType": "ethereum",
  "devdoc": {
    "kind": "dev",
    "methods": {},
    "version": 1
  },
  "userdoc": {
    "kind": "user",
    "methods": {},
    "version": 1
  }
}